:1000000000000420750300005D0300005F03000092
:1000100061030000630300006503000000000000AE
:100020000000000000000000000000006703000066
:1000300069030000000000006B0300006D03000076
:10004000855C00006F030000452D00006F03000079
:100050006F0300006F0300006F0300006F030000D8
:100060006F0300006F0300006F0300006F030000C8
:100070006F0300006F0300006F0300006F030000B8
:100080006F0300006F0300006F0300006F030000A8
:100090006F0300006F0300006F0300006F03000098
:1000A0006F0300006F0300006F0300006F03000088
:1000B0006F0300006F03000000000000000000005C
:1000C0006F0300006F0300006F0300006F03000068
:1000D000955900006F0300006F0300006F030000DC
:1000E0006F030000593B00006F0300000000000098
:1000F000000000006F030000000000006F0300001C
:1001000000000000000000000000000000000000EF
:1001100000000000000000000000000000000000DF
:1001200000000000000000000000000000000000CF
:1001300000000000000000000000000000000000BF
:1001400000000000000000000000000000000000AF
:10015000000000000000000000000000000000009F
:10016000000000000000000000000000000000008F
:10017000000000000000000000000000000000007F
:10018000000000000000000000000000000000006F
:10019000000000000000000000000000000000005F
:1001A000000000000000000000000000000000004F
:1001B000000000000000000000000000000000003F
:1001C000000000000000000000000000000000002F
:1001D000000000000000000000000000000000001F
:1001E000000000000000000000000000000000000F
:1001F00000000000000000000000000000000000FF
:10020000354936480A1A02D0072291438D463449AF
:1002100034480A1A06D00722914381F30988022242
:1002200082F3148830483149314A00F044F83148AB
:100230003149324A00F03FF831483249324A00F041
:100240003AF832483249334A00F035F832483349F7
:10025000334A00F030F833483349344A00F02BF881
:1002600033483449344A00F026F8344834490022EF
:1002700000F02CF833483449002200F027F83348C6
:100280003349091A082902DB002202604160314A21
:1002900090471F481F49884205D00268043003B4C4
:1002A000904703BCF7E700208646EC46002000217B
:1002B000294A9047FEE7884207D0521A05D00378B2
:1002C00001300B700131013AF9D17047884202D0F8
:1002D00002700130FAE770470000042000E00320BC
:1002E00000000420000004207C7F000000000020AB
:1002F00074000020D0030000D0030000546C000004
:100300007C7F00000000002000000020B06C000096
:10031000B06C0000B06C0000B06C0000B06C00006D
:10032000B06C0000B06C0000B06C00007C7F00007E
:10033000F07F000074000020740000207400002092
:1003400010090020100900201009002010090020C9
:10035000102900209D03000005600000FEE7FEE775
:10036000FEE7FEE7FEE7FEE7FEE7FEE7FEE7FEE765
:1003700000F002B8FFF7FCBF0F484FF007018843B9
:1003800085460E4880470E48016841F470010160BF
:10039000BFF34F8FBFF36F8FFFF732BF09480A4992
:1003A0000A4A884207D0521A05D0037801300B70F0
:1003B0000131013AF9D1704700000420256800009E
:1003C00088ED00E0B06C000000000020000000207C
:1003D00000B5A1B00590049103920293049802F035
:1003E00093FA039B1593029B169300231793002304
:1003F0008DF8603000231993229B1A9300231F93DA
:100400000FA91F9B0C22049802F058FB0C231F938A
:10041000119B1293BDF84030ADF84C30BDF842301E
:10042000ADF84E3000238DF851309DF83C3003F08C
:100430000303DBB2012B26D10F9BC3F395231C933F
:100440009DF83C30C3F3C203DBB28DF85030BDF8E9
:100450003C30C3F38313DBB21B931B9B9A0009A9A7
:100460001F9B049802F02AFB1B9B9B001F9A1344BE
:100470001F9312AA09A915AB009313461B9A1C9847
:1004800001F050F82FE09DF83C3003F00303DBB29D
:10049000022B28D1BDF83E30C3F389139BB21E93C3
:1004A0009DF83C30C3F3C203DBB28DF850301E9B85
:1004B000082B28BF08231D9307A91F9B1D9A04988A
:1004C00002F0FCFA1F9A1D9B13441F931E9A1D9B5A
:1004D000D31A1E9315AB12AA07A81D9901F0C4F8F0
:1004E0001E9B002BE3D1049802F01DFA00BF21B03F
:1004F0005DF804FB00B583B00190019B1B781A46A0
:100500000C4B9B5C002B05D0019B0433184604F078
:100510009FFD0BE0019B1B781A46064B9B5C002B52
:1005200004D1019B0C33184603F01AFF00BF03B03F
:100530005DF804FB7C06002000B587B003900291B3
:1005400013468DF8073000230593039B1B781A464A
:10055000114B9B5C002B09D0039B04339DF80720B3
:100560000299184604F0D6FD05900FE0039B1B7816
:100570001A46094B9B5C002B08D1039B0C339DF85A
:1005800007200299184603F063FF0590059B184663
:1005900007B05DF804FB00BF7C06002082B001902C
:1005A0000091034B01221A7000BF02B0704700BFD8
:1005B000B400002030B58DB003468DF807301A4BDB
:1005C00002AC1D460FCD0FC495E80F0084E80F0064
:1005D000062302934FF0FF3303934FF0FF3304934E
:1005E0004FF0FF3305934FF0EB7308939DF80730FE
:1005F000002B01D00D4A00E0002202AB19460C4846
:1006000002F032FB0B900B9B0A930A9B002B04D049
:10061000084A43210A9801F075FA074A9DF8073005
:10062000137000BF0DB030BD046D00009D050000CB
:1006300000000020B06C0000B500002000B583B0C1
:1006400000238DF807309DF807301846FFF7B2FFFA
:1006500000BF03B05DF804FB00B589B003900291C0
:100660000192019B8DF81F30124B00221A709DF8E9
:100670001F301A4602991048FFF75EFF0690069B4E
:100680000593059B002B04D00C4A5321059801F0DB
:1006900039FA00BF0A4B1B78002B07D0054B1B789B
:1006A000DBB283F00103DBB2002BF3D100BF09B052
:1006B0005DF804FBB400002000000020B06C0000D6
:1006C000B500002000B585B003900291054B009362
:1006D0004023054A02990398FFF77AFE00BF05B050
:1006E0005DF804FB590600007400002082B0019000
:1006F00000BF02B07047000000B583B0019005480C
:10070000FFF7F8FE0020FFF755FF00BF03B05DF8CC
:1007100004FB00BF0000002082B00190019BDB6859
:1007200001225A7100BF02B07047000000B583B0CB
:100730004FF0FF330193FFF781FF0421084800F0D9
:10074000A5FD0190019B002B03DA0649482001F02A
:10075000CCFA0348FFF7E0FF00BF03B05DF804FBED
:100760008C6C0000446D000000B583B001900091D6
:10077000019B1B681B6800990198984700BF03B054
:100780005DF804FB00B583B00190019B1B685B68BA
:100790000198984700BF03B05DF804FB00B583B033
:1007A0000190019B1B689B680198984700BF03B0AC
:1007B0005DF804FB82B001900B468DF80330019B7D
:1007C000DB689DF803201A7100BF02B0704782B049
:1007D0000190019BDB681B79184602B0704782B01C
:1007E0000190019BDB6801225A7100BF02B0704783
:1007F00082B00190019BDB685B79184602B07047BC
:1008000000B585B001900091019B002B01D1072319
:100810001BE0104B01221A70009800F09DFF0D4A5A
:10082000019BC2F80C340C4801F0D2FF0390039BEB
:10083000002B01D0039B08E0084802F05FF9084A4A
:10084000084BD31ADB0802930023184605B05DF865
:1008500004FB00BF200200209C6C00009C6D000087
:100860008C6C0000546C0000024A034BD31ADB0866
:10087000184670478C6C0000546C000000B587B0BF
:1008800001900B468DF803309DF80330002B1FD0EC
:10089000FFF7EAFF04900023059313E0059B9B00FC
:1008A0000E4A13440393039B1B881A46019B1B6843
:1008B0009A4204D1019B059A1A60002309E0059B26
:1008C00001330593059A049B9A42E7D3052300E080
:1008D0000023184607B05DF804FB00BF00000020AD
:1008E00000B585B001900B468DF803309DF80320CC
:1008F00001AB11461846FFF7C1FF0346002B07D195
:10090000019BDB00054A13440393039B1B6800E033
:100910000023184605B05DF804FB00BF546C0000CE
:1009200084B001900B468DF80330019BDB00174A21
:10093000134402939DF80330013B032B1CD801A202
:1009400052F823F0550900005D0900006509000018
:100950006F09000002238DF80F3011E004238DF899
:100960000F300DE0029B1B798DF80F3008E0029BE1
:100970005B798DF80F3003E000238DF80F3000BF56
:100980009DF80F30184604B0704700BF546C00004B
:1009900084B00190009100238DF80F30019B1B78EB
:1009A00003F00403DBB2002B24D0019B1B78C3F3BC
:1009B0000103DBB2012B02D0022B0CD017E0009B0D
:1009C0001B68019A1288C2F38312D2B21344DA1C54
:1009D000009B1A600BE0009B1B68019A5288C2F3CF
:1009E000891292B21344DA1C009B1A6000BF0123E3
:1009F0008DF80F309DF80F30184604B07047000096
:100A000000B58BB00023ADF826303E4801F0FAF96E
:100A10003D4801F0F7F93D4B9B6804933C4B1B6844
:100A20000693049A069B134002339B00374A1344F3
:100A30000433089304AB19460898FFF7A9FF03464F
:100A4000002B09D0049A069B134002339B002F4AC7
:100A5000134404330893EDE700BF0023079311E02C
:100A6000049B5A1C0492069A1340079A920001A90B
:100A70000A44264902339B000B445B681360079BC2
:100A800001330793079B022BEAD99DF80430C3F387
:100A90000103DBB2012B10D0022B1CD1BDF80A30B0
:100AA000ADF82630BDF80630C3F389139BB203338B
:100AB0009A08049B1344049313E0BDF80A30ADF880
:100AC0002630BDF80430C3F38313DBB21A46049B0F
:100AD0001344049305E00F494FF4C27001F005F987
:100AE00000BF094801F09AF90590059B002B02D040
:100AF000049B064A9360BDF8263018460BB05DF89B
:100B000004FB00BF3806002034060020200200202D
:100B10001C000020AC6D000000B585B00021074826
:100B200001F0F9F80390039B0293029B83F31003F7
:100B30000193019B184605B05DF804FB3C060020BC
:100B400010B588B00390029101920093039B1B0C97
:100B50000793FFF7E1FF0690FFF786FE0246079B2B
:100B6000934204D3284940F2A91001F0BEF8069B35
:100B70001904009B5A1C0A9B1340079A0A432349F5
:100B800002339B000B445A60204BD3F80C34009A7C
:100B9000911C0A9A01EA0204984702461B49A31CC9
:100BA0009B000B445A60009A0A9B134002339B003F
:100BB000164A134404330593039B03F00703D9B289
:100BC000059A137861F3C5031370019B03F00F03BB
:100BD000D9B2059A138861F389131380029BC3F37A
:100BE0001501059A136861F39F231360059A137822
:100BF000012161F301031370059A13786FF38203E7
:100C0000137000BF08B010BDAC6D000020020020C2
:100C100000B58BB00390029113468DF80730039B0B
:100C20000333089301238DF81F30002001F016F8DC
:100C30003E4B5A68029B1A603D4B1A683B4B9968C1
:100C40003A4B5B68CB1A13440133099314E001213A
:100C5000384801F0A7F8FFF7D3FE0590059935480D
:100C600001F0A0F8324B1A68304B99682F4B5B6843
:100C7000CB1A134401330993089A099B9A42E6D888
:100C80009DF81F30002B48D0002304939DF80730B7
:100C9000002B17D09DF81030012262F301038DF86C
:100CA00010309DF8103043F004038DF81030039B92
:100CB00003F00F03DAB2BDF8103062F38913ADF818
:100CC000103016E09DF81030022262F301038DF817
:100CD00010309DF8103043F004038DF81030039B62
:100CE000C3F309039AB2BDF8123062F38F13ADF863
:100CF00012300E4B5A680E4B1B68134002339B0098
:100D00000A4A134404330693049A069B1A60074B5D
:100D10005A68089B1344054A5360002000F0B2FF54
:100D20009DF81F3018460BB05DF804FB2002002030
:100D30001C0000203C06002000B58BB005900491FB
:100D4000039202931F4B1B68079306AB01221946BF
:100D50000298FFF75DFF0346002B24D0069B033368
:100D600009930023089311E0089B9B00039A1A44FF
:100D7000099B591C099107990B40126812490233CB
:100D80009B000B445A60089B01330893089A029B0E
:100D90009A42E9D3069A079B00931346029A049954
:100DA0000598FFF7CDFE084B1B78002B05D000BF40
:100DB00000F068F80346002BFAD100BF0BB05DF8D5
:100DC00004FB00BF1C0000202002002000B583B0FF
:100DD000019000910023002200990198FFF7ACFFD9
:100DE00000BF03B05DF804FB00B587B0039002912B
:100DF0000192019B059305AA012302990398FFF72D
:100E00009BFF00BF07B05DF804FB00B587B00390FF
:100E1000029101920093019B0493009B059304AA05
:100E2000022302990398FFF787FF00BF07B05DF820
:100E300004FB00B58BB00390029101920093019BDB
:100E40000593009B06930C9B07930D9B08930E9BA9
:100E5000099305AA052302990398FFF76DFF00BFC8
:100E60000BB05DF804FB0000054B9A68044B5B680F
:100E70009A420CBF01230023DBB21846704700BF23
:100E80002002002000B599B0FFF7EEFF0346002BCB
:100E900001D00023B9E19B4B0022C3F81824BFF313
:100EA0004F8F00BF974B9B680493974B1B68109321
:100EB000049A109B134002339B00924A134404335C
:100EC0001193002317930023169300230F9304AB71
:100ED00019461198FFF75CFD0346002B19D0894B8A
:100EE000D3F81834002B14D1864B5A68049B9A42CD
:100EF00005D8844B5B68834A9360002385E1049A9C
:100F0000109B134002339B007E4A13440433119319
:100F1000DDE70023159311E0049B5A1C0492109AFC
:100F20001340159A920001A90A44764902339B00A6
:100F30000B445B681360159B01331593159B022BC3
:100F4000EAD99DF8043003F00303DBB2022B40F032
:100F50009C80BDF80630C3F389139BB20D93BDF896
:100F60000630C3F389139BB2502B28BF50239BB28A
:100F70000C930C9BC3F309039AB2BDF8063062F3DD
:100F80008F13ADF806300C9B0C330B939DF8043097
:100F9000C3F3C203DBB20F930B995C4801F023FC4F
:100FA0001790179B002B00F0D380179801F0ACFC32
:100FB00001A9169B0C22179801F062FD169B0C33B9
:100FC0001693049BDA43109B134001339B000A9352
:100FD0000C9A0A9B9A4242D90A9B002B08D0049A89
:100FE000109B134002339B00464A1344043300E035
:100FF000474B08930A9B002B02D00A9BDBB201E00F
:101000000C9BDBB28DF81F300A9B002B01D0404BAC
:1010100000E0002306930A9B002B06D00C9BDAB25B
:101020000A9BDBB2D31ADBB200E000238DF8173045
:101030009DF81F20169B0899179801F021FD9DF837
:101040001F30169A13441693069B002B16D09DF85A
:101050001720169B0699179801F012FD0EE0049ACE
:10106000109B134002339B00264A13440433099318
:10107000169B0C9A0999179801F002FD0D9B0333FA
:101080009A08049B1344049362E09DF8043003F033
:101090000303DBB2012B5BD1BDF80430C3F3831330
:1010A000DBB2062B28BF0623DAB2BDF8043062F3A8
:1010B0008913ADF80430BDF80430C3F38313DBB2F9
:1010C00003330E939DF80430C3F3C203DBB20F93D6
:1010D0000E9B9B0019460D4801F085FB1790179B4E
:1010E000002B35D0179801F00FFC01A9169B0C229C
:1010F000179801F0C5FC169B0C331693002315932B
:101100001DE000BF200200201C0000209C6C00009D
:101110002C020020049B5A1C0492109A13400233A4
:101120009B003C4A1344191D169B0422179801F09A
:10113000A7FC169B04331693159B01331593BDF83A
:101140000430C3F38313DBB21A46159B9342E1D3F9
:10115000179B002B39D02F4BD3F8103414932D4B01
:10116000D3F81834002B1BD0179801F0DCFB46E0B5
:1011700000238DF84F301498FFF73AFB0346002BFD
:1011800002D001238DF84F309DF84F30002B03D053
:1011900017991498FFF7E8FA149BDB681B681493FF
:1011A000149B002BE4D1179801F0BDFB002000F048
:1011B00055FD184BD3F81834002B02D1049B154A67
:1011C0009360002000F05EFD19E0124BD3F810345C
:1011D000129306E01298FFF7E1FA129BDB681B6896
:1011E0001293129B002BF5D10B4A0C4BD31ADB0840
:1011F0001B0443F002030A491846FFF7E7FDFFF717
:1012000033FE034683F00103DBB2184619B05DF8E4
:1012100004FB00BF200200207C6C0000546C000026
:10122000FC6D000000B585B00023039323E0164B4E
:10123000D3F81034029301238DF807300FE00298A1
:10124000FFF7C5FA03461A46039B934203D10023D6
:101250008DF8073006E0029BDB681B680293029B57
:10126000002BECD19DF80730002B01D0039B07E049
:10127000039B01330393039B092BD8DD4FF0FF330E
:10128000184605B05DF804FB2002002000B585B0CB
:1012900001900B468DF80330FFF7C4FF0390039BCA
:1012A000B3F1FF3F01D1039B22E0039BDBB2194660
:1012B0000198FFF77FFA104BD3F81034002B08D1B8
:1012C0000D4A019BC2F81034019BDB6800221A60B2
:1012D0000DE0094BD3F81034DA68019BDB68126823
:1012E0001A60054BD3F81034DB68019A1A60039B2F
:1012F000184605B05DF804FB2002002000B583B05D
:101300000C4BD3F8103401930A4B01221A7009E0F8
:101310000198FFF764FA0198FFF734FA019BDB6844
:101320001B680193019B002BF2D100BF00BF03B0EB
:101330005DF804FB2002002000B58DB005900491FB
:101340002F4B1B68049AB2FBF3F304932D4B1B68DD
:10135000049AB2FBF3F30B930B9B2B4AA2FB0323E0
:10136000DB0A0A930A9B4FF4616202FB03F30B9AB8
:10137000D31A0B930B9B254AA2FB03235B0909930A
:10138000099A13461B019B1A9B001A460B9B9B1A3A
:101390000B931C4B1A68049BB3FBF2F101FB02F2A6
:1013A0009B1A0893089B4FF47A7203FB02F2154BC9
:1013B0001B68B2FBF3F30793089B4FF47A7203FBAD
:1013C00002F2104B1B68079901FB03F3D31A4FF489
:1013D0007A7203FB02F20B4B1B68B2FBF3F306932A
:1013E000069B0293079B01930B9B0093099B0A9A10
:1013F0000749059800F040FE00BF0DB05DF804FB02
:101400004406002040060020C5B3A2918988888840
:10141000786E000010B584B003900291039BDB88C6
:10142000002B0AD0039BDB881A461F4B0093134600
:101430001E4A1F49029800F01FFE039B1B7A052BD2
:101440002ED0039B5B7A002B12D0039B9B881A46FD
:10145000039B1B7A19461046FFF762FA03461A46A9
:10146000144B53F822301A461349029800F004FE38
:10147000039B1B6819460298FFF75EFF039B1B7ACC
:101480001A460E4B53F82240039B9B8800211846B6
:10149000FFF726FA034622460949029800F0ECFDC0
:1014A00000BF04B010BD00BF306E0000406E0000F1
:1014B000946E000034000020AC6E0000200000207C
:1014C000B06E000000B585B00390029113468DF810
:1014D0000730039B1B7A052B0FD0039B5B7A002BF5
:1014E00006D00D4B1B681A460C49029800F0C4FD4B
:1014F0000B49029800F0C0FD07E09DF80730002B73
:1015000003D00749029800F0B7FD029800F092FD61
:1015100000BF05B05DF804FB34000020AC6E000095
:10152000BC6E000030B58BB0079006910592049315
:101530000E9B1B7B8DF827300E9B00221A730E9991
:101540000498FFF767FF059B062B7FD801A252F88E
:1015500023F000BF711500007B1500008B15000003
:101560009F150000BD150000E515000015160000D0
:1015700007990E9800F080FD69E0069B1B681A46EB
:1015800007990E9800F078FD61E0069B1A68069BAB
:1015900004331B6807990E9800F06EFD57E0069B18
:1015A0001A68069B04331968069B08331B6800936E
:1015B0000B4607990E9800F05FFD48E0069B1968FE
:1015C000069B04331868069B08331B68069A0C3286
:1015D00012680192009303460A4607990E9800F09C
:1015E0004BFD34E0069B1868069B04331C68069B81
:1015F00008331B68069A0C32126806991031096884
:101600000291019200932346024607990E9800F03A
:1016100033FD1CE0069B1C68069B04331D68069B7B
:1016200008331B68069A0C32126806991031096853
:1016300006981430006803900291019200932B46A3
:10164000224607990E9800F017FD00E000BF002227
:101650000E990498FFF736FF0E9B9DF827201A730A
:1016600000BF0BB030BD00BF00B587B00390029142
:1016700001920093029B082B60D8009B1B7B8DF886
:101680001330009B00221A7300990198FFF7C2FEE5
:101690000023059314E0059A029B9A4209D2039A0B
:1016A000059B13441B781A462649009800F0E4FC79
:1016B00003E02549009800F0DFFC059B013305930A
:1016C000059B072BE7D92149009800F0D5FC0023A2
:1016D000059326E0059A029B9A421BD2039A059B2A
:1016E00013441B788DF812309DF812307E2B0AD8E7
:1016F0009DF81230184605F001FA0346002B02D07F
:101700009DF8123000E02E231A461149009800F08F
:10171000B3FC03E00F49009800F0AEFC059B0133D9
:101720000593059B072BD5D9012200990198FFF756
:10173000C9FE009B9DF813201A7300E000BF07B09C
:101740005DF804FBC06E0000C86E0000CC6E0000A7
:10175000D06E0000D46E000082B001900A4B0122CE
:101760001A6007E0019B5B080193074B1B685B0055
:10177000054A1360019B054A9342F3D8044A019B32
:10178000136000BF02B070474406002040420F00C3
:101790004006002000B583B00190019B1B681846ED
:1017A00000F0C3F80346002B04D10B494FF4F67048
:1017B00000F09BFA019B1B681F2B02D84FF0A0433F
:1017C00006E0019B1B6803F01F02019B1A60034B9C
:1017D000184603B05DF804FBD86E0000000300500B
:1017E00000B585B00190084611461A4603468DF8AB
:1017F00003300B468DF8023013468DF8013001ABF3
:101800001846FFF7C7FF03909DF803209DF80230AC
:101810005B001A439DF801309B001A439DF8183075
:101820001B0242EA03019DF81C301B04019A194374
:10183000039B02F5E07243F8221000BF05B05DF88B
:1018400004FB00B585B003900023019300230093AF
:101850000023012201210398FFF7C2FF00BF05B05A
:101860005DF804FB00B585B003900B468DF80B3096
:101870009DF80B30002201920022009200220021EC
:101880000398FFF7ADFF00BF05B05DF804FB00B59E
:1018900085B0019001AB1846FFF77CFF0390019BD8
:1018A000012202FA03F31946039800F02AF800BF58
:1018B00005B05DF804FB00B585B0019001AB18469A
:1018C000FFF768FF0390019B012202FA03F3194618
:1018D000039800F020F800BF05B05DF804FB00B5E8
:1018E00083B001900091009B002B03D10198FFF77A
:1018F000E2FF02E00198FFF7CAFF00BF03B05DF806
:1019000004FB82B001900091019B009AC3F8082566
:1019100000BF02B0704782B001900091019B009A15
:10192000C3F80C2500BF02B0704784B00190019B42
:101930005B09029300230393029B002B03D0029BBD
:10194000012B04D007E04FF0FF33039303E04FF681
:10195000FF73039300BF019B03F01F030193039ADE
:10196000019B22FA03F303F00103002B14BF0123B0
:101970000023DBB2184604B07047000000B583B006
:101980000190019B032B03D90749472000F0ADF9D3
:10199000064A019B13441B7801211846FFF79FFF5D
:1019A00000BF03B05DF804FB086F0000446F000047
:1019B00000B583B00023019305E00198FFF7DEFF37
:1019C000019B01330193019B032BF6D900BF00BF9C
:1019D00003B05DF804FB000000B583B00023019361
:1019E00009E0094A019B13441B781846FFF729FFB9
:1019F000019B01330193019B032BF2D9FFF7D8FF21
:101A000000BF03B05DF804FB446F000000B583B075
:101A1000002301930AE0094A019B13441B78032128
:101A20001846FFF71FFF019B01330193019B032B16
:101A3000F1D900BF00BF03B05DF804FB486F0000A0
:101A400000B583B00190019B03F00103002B01D08E
:101A5000FFF7C2FF019B03F00203002B01D0FFF749
:101A6000D5FF00BF03B05DF804FB000086B0039013
:101A70000291019201238DF817309DF81730204A0A
:101A8000039B13601E4A029B53601D4A019B936097
:101A9000039B44F20102934212D0039B44F20202E0
:101AA000934220D1019B164AD360154BDB681B681B
:101AB000134A9361124BDB685B68114AD36112E0F1
:101AC000019B0F4A13610E4B1B699B680C4A5361C3
:101AD0000B4B1B691B680A4A9361094B1B695B68C6
:101AE000074AD36100BF72B600BF00BF9DF8173030
:101AF000DBB2002BFAD162B600BF00BF06B0704760
:101B00004806002000B583B002900091019244F293
:101B1000010071466A4600F003F803B000BD00BF43
:101B200030B58BB007900691059272B600BFFFF7F3
:101B3000E5FB00BFFFF7A6F90346002BFAD1079B90
:101B400044F20102934216D0079B44F202029342F0
:101B50003ED1059B09932C4A2C4BD31ADB081B045E
:101B600043F00100099B5B681A46099B1B682849E2
:101B7000FFF74BF939E0059B0893234A234BD31A0F
:101B8000DB081B0443F00104089B9D68089B9B68CD
:101B9000184600F0D1FF03461846089B5B681946BB
:101BA000089B1B68069A02920193009103462A46FD
:101BB00018492046FFF73DF9134A144BD31ADB08A6
:101BC0001B0443F0010314491846FFF7FFF80CE02B
:101BD0000D4A0E4BD31ADB081B0443F00103069A8F
:101BE0000E491846FFF700F900BF0D4B1B6803F0C4
:101BF0000103002B00D000BE059A06990798FFF755
:101C000035FF00BF0BB030BD7C6C0000546C000091
:101C10004C6F0000686F0000906F0000A46F000020
:101C2000F0ED00E072B600BF034B1B680133024ABF
:101C3000136000BF704700BF68060020064B1B689A
:101C4000013B054A1360044B1B68002B01D162B6AF
:101C500000BF00BF704700BF6806002000B583B01A
:101C6000019000F025F80346012B03D004494320DE
:101C700000F03BF8FFF7D6FF00BF03B05DF804FBB0
:101C8000BC6F000000B583B003468DF8073000F04C
:101C90000FF80346012B03D00449512000F025F82A
:101CA000FFF7CCFF00BF03B05DF804FBBC6F000082
:101CB00084B0EFF305830193019BC3F308030393FF
:101CC000039B002B0DD1EFF314830093009B029331
:101CD000029B03F00103002B0CBF01230023DBB2A6
:101CE00000E00123184604B0704700B585B00346F4
:101CF0000091ADF80630BDF806300293009B0393C7
:101D000002AB1A46002144F20200FFF709FF00BFB0
:101D100005B05DF804FB10B487B001900091019B01
:101D2000009A53E8004F104643E8000191F0000F7D
:101D3000F7D1059404900391059B184607B05DF810
:101D4000044B704710B487B001900091019B009A3A
:101D500053E8004F44EA020043E8000191F0000F0D
:101D6000F6D1059404900391049B184607B05DF8E2
:101D7000044B704710B487B001900091019B009A0A
:101D800053E8004F04EA020043E8000191F0000F1D
:101D9000F6D1059404900391059B184607B05DF8B1
:101DA000044B704710B487B001900091019B009ADA
:101DB00053E8004F04EB020043E8000191F0000FEC
:101DC000F6D1059404900391049B184607B05DF882
:101DD000044B704710B487B001900091019B009AAA
:101DE00053E8004FA4EB020043E8000191F0000F1C
:101DF000F6D1059404900391049B184607B05DF852
:101E0000044B704700B583B0019001210198FFF7A2
:101E100099FF0346184603B05DF804FB00B583B094
:101E2000019000210198FFF7A5FF0346184603B073
:101E30005DF804FB00B583B001900B468DF80330CC
:101E4000019B002B03D10849E820FFF74EFF019BBF
:101E5000DA689DF803300199098A01FB03F3134402
:101E6000184603B05DF804FB0C70000000B583B0A9
:101E700001900091019B002B03D10849F520FFF749
:101E800034FF009B019AD2689B1A019A128AB3FB15
:101E9000F2F3DBB2184603B05DF804FB0C700000EF
:101EA00000B585B00190019B002B01D10E234CE0C1
:101EB000019B1B68002B03D12649FF20FFF715FF6C
:101EC000019B5B68002B04D122494FF48070FFF71F
:101ED0000CFF019B9B68002B04D11E4940F20110AE
:101EE000FFF703FF019BDB68002B04D119494FF476
:101EF0008170FFF7FAFE019B1B8A002B04D1154964
:101F000040F20310FFF7F1FE019B9A68019B5B68AA
:101F1000D31A8DF80F30019B1B68019A52681A6022
:101F200007E0019B1A681368591C11609DF80F2087
:101F30001A709DF80F305A1E8DF80F20002BF0D12B
:101F4000019B1B6800221A710023184605B05DF83A
:101F500004FB00BF0C70000000B585B00190019B30
:101F6000002B04D11C494FF49270FFF7BEFE0023F2
:101F700003930020FFF772FE019B1B681A68019B08
:101F80005B689A421FD9019B1B681A68013A1A6064
:101F90001B681B7819460198FFF74CFF0390019BC3
:101FA0009A68019B1B681B68D31A8DF80B30019B44
:101FB0001B681B799DF80B209A4204D9019B1B6872
:101FC0009DF80B201A710020FFF75CFE039B18465A
:101FD00005B05DF804FB00BF0C70000010B584B0C4
:101FE00001900091019B002B04D1114940F2471050
:101FF000FFF77BFE009B002B04D10D494FF4A4702A
:10200000FFF773FE009B03930020FFF727FE019B61
:102010001B681C68621C1A6003990198FFF726FF71
:10202000034623700020FFF72DFE00BF04B010BD53
:102030000C70000000B583B00190019B002B03D110
:102040000C493120FFF751FE019B9B68002B0CD0FF
:10205000019B5B69019A1069019A1168019A926863
:102060009847019B00229A6000E000BF03B05DF832
:1020700004FB00BF547000000EB400B584B00190A2
:10208000019B002B03D118494220FFF72EFE019B34
:102090005B69002B03D114494320FFF726FE019B07
:1020A0001B68002B03D110494420FFF71EFE019B43
:1020B0005B68002B03D10C494520FFF716FE059BFA
:1020C000002B0AD00023039306AB039303AB1A46FD
:1020D0000599019800F0B8F900E000BF04B05DF880
:1020E00004EB03B0704700BF5470000000B583B02C
:1020F00001900B468DF803309DF803300A2B03D175
:102100000D210198FFF7F2FF019B1A68019B9B6864
:10211000581C0199886013449DF803201A70019B94
:102120009A68019B5B689A4202D30198FFF782FF8D
:1021300000BF03B05DF804FB00B587B003900291C7
:102140000192009300230593009B03F00103002BF1
:1021500024D00BE0029B01330293059B01330593CE
:102160009DF8133019460398FFF7C0FF029B1B78B8
:102170008DF813309DF81330002BEBD106E0019B56
:10218000013B019320210398FFF7B0FF019A059BC3
:102190009A422ED9019B002BF1D12AE0029B002B01
:1021A0000BD0029804F025FD059006E0019B013B51
:1021B000019320210398FFF799FF019A059B9A420A
:1021C0000FD9019B002BF1D10BE0029B013302934D
:1021D000059B013305939DF8133019460398FFF7CB
:1021E00085FF029B1B788DF813309DF81330002B70
:1021F000EBD100BF07B05DF804FB000000B589B06B
:102200000390029101920093029B0793012306938E
:1022100007E0079A019BB2FBF3F30793069B013398
:102220000693079A019B9A42F3D2009A069B9A4220
:1022300001D9009B06930B9B03F00103002B22D1D5
:102240000A9B002B1FD00B9B03F00203002B06D030
:10225000009B002B03D130238DF8173002E02023A0
:102260008DF8173008E00A9B013B0A939DF8173060
:1022700019460398FFF73AFF0A9B002B03D0069AF2
:102280000A9B9A42EFD301230793009B012B03D9AA
:10229000009B013B009309E0029A079BB2FBF3F31A
:1022A0000493049A019B9A4200D205E0079B019A8D
:1022B00002FB03F30793E8E7029A079BB2FBF3F3F1
:1022C0000493049B079A02FB03F3029AD31A029326
:1022D000154A049B13441B7819460398FFF706FF21
:1022E000079A019BB2FBF3F30793079B002BE3D103
:1022F0000B9B03F00103002B11D00A9B002B0ED087
:1023000006E00A9B013B0A9320210398FFF7EEFEAB
:102310000A9B002B03D0069A0A9B9A42F1D300BF76
:1023200009B05DF804FB00BFDC70000000B589B0A7
:102330000590049103920293049B002BB8BF5B426B
:1023400006930123079307E0039B069A92FBF3F39E
:102350000693079B01330793039B069A9A42F3DA8D
:10236000029A079B9A4201D9029B07930A9B002B72
:102370000AD0049B002B04DB0B9B03F00403002B0F
:1023800002D00A9B013B0A930B9B03F00203002B34
:1023900002D0029B002B16D00B9B03F00103002BF5
:1023A00011D10A9B002B0ED006E00A9B013B0A9339
:1023B00020210598FFF79AFE0A9B002B03D0079A6D
:1023C0000A9B9A42F1D3049B002B07DA049B5B42E1
:1023D00004932D210598FFF789FE08E00B9B03F07D
:1023E0000403002B03D02B210598FFF77FFE0B9BE6
:1023F00003F00203002B19D00B9B03F00103002B09
:1024000014D1029B002B11D10A9B002B0ED006E0A9
:102410000A9B013B0A9330210598FFF767FE0A9B50
:10242000002B03D0079A0A9B9A42F1D304990B9B85
:1024300001930A9B0093029B039A0598FFF7DEFE27
:1024400000BF09B05DF804FB00B58FB005900491A2
:102450000392059B002B04D1AD4940F25220FFF7B7
:1024600044FC059B5B69002B04D1A9494FF415700E
:10247000FFF73BFC059B1B68002B04D1A44940F2ED
:102480005520FFF732FC059B5B68002B04D1A04967
:1024900040F25620FFF729FC049B002B00F09381AB
:1024A000049B1B788DF83730049B013304939DF80F
:1024B0003730002B00F07E819DF83730252B40F01F
:1024C0006D8100230A9301230C93049B1B788DF8E4
:1024D00037309DF83730302B0DD0302B1BDC2B2BB9
:1024E00011D02D2B17D10A9B43F001030A93049BB3
:1024F0000133049312E00A9B43F002030A93049B06
:10250000013304930AE00A9B43F004030A93049BFB
:102510000133049302E000230C9300BF0C9B002BBB
:10252000D3D1002309939DF837302A2B0CD1039B7C
:102530001B68191D039A11601B68099A13440993BB
:10254000049B013304931AE0049B1B788DF8373009
:102550009DF837302F2B12D99DF83730392B0ED8F4
:10256000049B01330493099A13469B0013445B00B8
:102570001A469DF837301344303B0993D3E70023C4
:102580000B93049B1B788DF837309DF837302E2B3A
:102590001DD1049B01330493049B1B788DF83730C5
:1025A0009DF837302F2B12D99DF83730392B0ED8A4
:1025B000049B013304930B9A13469B0013445B0066
:1025C0001A469DF837301344303B0B93E4E7049BE5
:1025D0001B788DF837309DF837306C2B03D09DF881
:1025E0003730682B07D1049B01330493049B1B787D
:1025F0008DF83730EFE79DF83730252B00F0C48099
:10260000252BC0F2C680782B00F3C380582BC0F274
:10261000C080583B202B00F2BC8001A252F823F06E
:102620001527000093270000932700009327000040
:1026300093270000932700009327000093270000B2
:10264000932700009327000093270000A526000091
:10265000C72600009327000093270000932700005F
:1026600093270000C726000093270000932700004F
:102670009327000093270000932700009327000072
:1026800055270000932700009327000039270000FA
:1026900093270000EB2600009327000093270000FB
:1026A00015270000039B1B68191D039A11601B6806
:1026B0000C930C9B8DF81F309DF81F301946059820
:1026C000FFF714FD66E0039B1B68191D039A116058
:1026D0001B680C930A9B0193099B00930B9B0A2296
:1026E0000C990598FFF722FE54E0039B1B68191D07
:1026F000039A11601B680C930C990A9B0193099B28
:1027000000930B9B0A220598FFF778FD42E000BF7B
:1027100094700000039B1B68191D039A11601B68CD
:102720000C930C990A9B0193099B00930B9B10221D
:102730000598FFF763FD2DE0039B1B68191D039AA5
:1027400011601B6808930A9B099A08990598FFF77E
:10275000F3FC1FE0039B1B68191D039A11601B68A3
:102760000C9330210598FFF7C1FC78210598FFF7FD
:10277000BDFC0C9900230193082300930823102229
:102780000598FFF73BFD05E025210598FFF7AEFC16
:1027900000E000BF049B0133049305E09DF837304F
:1027A00019460598FFF7A2FC049B1B78002B7FF4C9
:1027B00077AE00E000BF059B1B7B002B04D0059883
:1027C000FFF738FC00E000BF0FB05DF804FB00BF6E
:1027D00000B583B001900198FFF762FB03461846ED
:1027E00003B05DF804FB00B58BB001900091019B34
:1027F0001B8A043B0793009A079B1344DA1C079B30
:10280000B2FBF3F38DF81B300198FFF7A5FB0590A1
:10281000059B002B01D1002338E0059B00221A7193
:10282000059B01225A71079B9AB2059BDA80059B92
:1028300009939DF81B30013B0493099B019A1A6090
:10284000002308931DE00198FFF786FB0390039B8C
:10285000002B0ED0059B5B790133DAB2059B5A71D0
:10286000099B039A1A60039B019A1A60039B0993C0
:1028700004E0059800F00EF8002307E0089B013300
:102880000893089A049B9A42DDD3059B18460BB027
:102890005DF804FB00B58BB00190019B0793079B8B
:1028A0005B798DF81B30019B08939DF81B30013B31
:1028B00005930023099305E0089B1B680893099B77
:1028C00001330993099A059B9A42F5D3089B1B682B
:1028D0000493019B0893002309930BE0089B1B685A
:1028E000039308990498FFF779FB039B0893099BCE
:1028F000013309939DF81B30099A9A42EED300BF29
:1029000000BF0BB05DF804FB00B585B00190019BE2
:102910000393039B043301211846FFF743FA00BFDA
:1029200005B05DF804FB00B587B00190019B0593ED
:10293000059B043301211846FFF74CFA0346039325
:1029400003AB0493049B1B78002B02D10198FFF783
:10295000A1FF00BF07B05DF804FB000000B591B017
:102960000390029101920093039B002B03D14349F2
:10297000B620FFF7BAF9039B0993039B0F93099BBA
:10298000DB881A46099B5B7902FB03F3043B08933F
:10299000009A089B9A4203D33849C420FFF7A5F94F
:1029A000099BDB880793009B1A1D079BB2FBF3F37F
:1029B0000E93009B0433079AB3FBF2F2079901FBD5
:1029C00002F29B1A0D93019B1A68009B1344089A0C
:1029D0009A4203D2089A009BD31A01E0019B1B681C
:1029E0000C93019B0C9A1A6005E00F9B1B680F93D8
:1029F0000E9B013B0E930E9B002BF6D100230B93F5
:102A0000079A0D9BD31A0A930A9A0C9B934228BFEC
:102A100013460A932AE0029A0B9B134406930F9ADB
:102A20000D9B1344043305939DF84830002B05D0CB
:102A30000A9A0599069804F0B3F804E00A9A0699F0
:102A4000059804F0ADF800230D930F9B1B680F93BE
:102A50000C9A0A9BD31A0C930B9A0A9B13440B9360
:102A6000079A0C9B934228BF13460A930C9B002B9A
:102A7000D1D100BF00BF11B05DF804FBEC700000C5
:102A800000B589B00590049103920293039B0793CC
:102A900007AA00230093029B04990598FFF75EFFA5
:102AA000079B039A9A4203D00349F620FFF71DF9CA
:102AB00000BF09B05DF804FBEC70000000B589B000
:102AC0000590049103920293039B079307AA0123A5
:102AD0000093029B04990598FFF740FF079B039A18
:102AE0009A4204D004494FF48070FFF7FEF800BF0B
:102AF00009B05DF804FB00BFEC70000082B00190EB
:102B0000019B9B6800229A60019B9B6800221A61CE
:102B1000019B9B6800225A61019B9B680022DA603E
:102B2000019B9B6800225A60019B9B6800221A60EF
:102B300000BF02B07047000000B585B00190019859
:102B400000F00EF80390039B002B01D0039B00E0E4
:102B5000024B184605B05DF804FB00BF347100005D
:102B600086B00190164B0593164B04931FE0049A10
:102B7000059BD31ADB10DA0F13445B10DB00059AB8
:102B800013440393039B1B680293029A019B9A428E
:102B900002D9039B04930AE0029A019B9A4203D252
:102BA000039B0833059302E0039B5B6804E0059AEE
:102BB000049B9A42DBD30023184606B0704700BF3F
:102BC000087500002076000000B589B001900091E2
:102BD000009B0793019B1B788DF80C30019B5B6871
:102BE0000493019B9B68DBB28DF81430019BDB687A
:102BF0000693074A079B52F823300649079A51F873
:102C0000221003AA1046984700BF09B05DF804FBE4
:102C10006C0600207406002000B589B00190009178
:102C2000009B0793019B1B788DF80C30019B5B6820
:102C30000493019B9B68DBB28DF81430019BDB6829
:102C40000693074A079B52F823300649079A51F822
:102C5000221003AA1046984700BF09B05DF804FB94
:102C60006C0600207406002030B58FB003900291EE
:102C70000192039B1B780C932C490C9B019A41F801
:102C80002320029B1A692A490C9B41F823200C9BA4
:102C9000012B07D1029B5B7F002B03D125497620B6
:102CA000FFF723F8029B5B7F1946234A0C9B1344D2
:102CB0000A461A70029B04AC1D460FCD0FC495E85E
:102CC0000F0084E80F000C9B089300230D93039BD7
:102CD0001B781A46184B9B5C002B0DD0039B181DCC
:102CE000019B002B01D0154A00E0002204AB1946DD
:102CF00002F048F90D9014E0039B1B781A460E4B26
:102D00009B5C002B0DD1039B03F10C00019B002B5E
:102D100001D00B4A00E0002204AB194601F0B6FADC
:102D20000D900D9B18460FB030BD00BF6C06002003
:102D300074060020207600007C060020C92B0000CD
:102D4000192C000008B5064B1B68002B03D1054960
:102D50005120FEF7CAFF024B1B68984700BF08BD11
:102D6000800600206C76000082B00190019B044A2E
:102D7000934201D1034B00E00023184602B0704794
:102D8000002000408006002000B587B0019000912F
:102D9000019B002B03D118497720FEF7A6FF01986D
:102DA000FFF7E2FF0590059B002B1ED000238DF856
:102DB00013300020FEF752FF059B1B79002B03D038
:102DC00001238DF8133005E0059B009A1A60059BDE
:102DD00001221A710020FEF755FF9DF81330002BD9
:102DE00003D011230393039B02E000230393039B6F
:102DF000184607B05DF804FB6C76000000B585B09E
:102E00000190019B002B03D10A499B20FEF76DFF27
:102E10000198FFF7A9FF0390039B002B05D0039BAC
:102E200000221A60039B00221A7100BF05B05DF8F2
:102E300004FB00BF6C76000082B003468DF80730BB
:102E40009DF90730002B0CDB9DF8073003F01F02C3
:102E500005499DF907305B09012000FA02F241F8AB
:102E6000232000BF02B0704700E100E082B00346BB
:102E70008DF807309DF90730002B13DB9DF80730E4
:102E800003F01F0209499DF907305B09012000FA90
:102E900002F2203341F82320BFF34F8F00BFBFF36E
:102EA0006F8F00BF00BF02B0704700BF00E100E0BD
:102EB00082B0034600918DF807309DF90730002B52
:102EC0000ADB009BDAB20C499DF907305201D2B2FD
:102ED0000B4483F800230BE0009BDAB207499DF80E
:102EE000073003F00F03043B5201D2B20B441A76B1
:102EF00000BF02B0704700BF00E100E000ED00E05D
:102F000082B00190019B03F06043B3F1005F0CBFFE
:102F100001230023DBB2184602B0704782B0019053
:102F2000019B03F00303002B0CBF01230023DBB242
:102F3000184602B07047000000B583B003460A4649
:102F40008DF8073013468DF806309DF80630072BB4
:102F500003D908496B20FEF7C8FE9DF806209DF9AD
:102F6000073011461846FFF7A3FF00BF03B05DF816
:102F700004FB00BFB476000000B583B003468DF8B3
:102F800007309DF907301846FFF756FF00BF03B022
:102F90005DF804FB00B583B003468DF807309DF95A
:102FA00007301846FFF762FF00BF03B05DF804FB6F
:102FB00000B585B00190019B002B0AD0074B43F070
:102FC00001030393019B9B010293039B0298984783
:102FD00000E000BF05B05DF804FB00BF60770000B3
:102FE00082B001900B468DF803309DF80330019AB2
:102FF000134401221A6000BF02B0704782B00190F2
:103000000B46ADF80230BDF80230019A134400229D
:103010001A6000BF02B0704782B001900B46ADF855
:103020000230BDF80230019A13441B68002B14BF14
:1030300001230023DBB2184602B0704782B0019032
:103040000091019B009AC3F8042300BF02B07047AF
:1030500082B001900091019B009AC3F8082300BF41
:1030600002B0704782B00190019B0122C3F8002595
:1030700000BF02B07047000082B00190044B0122F3
:103080001A60019B0022C3F8002500BF02B0704700
:103090005490024082B001900091009B1B78FF2B5E
:1030A00003D0009B1B781A4601E04FF0FF32019BD2
:1030B000C3F82425009B5B78FF2B03D0009B5B7833
:1030C0001A4601E04FF0FF32019BC3F82825009B10
:1030D0009B78FF2B03D0009B9B781A4601E04FF0B2
:1030E000FF32019BC3F83025009BDB78FF2B03D018
:1030F000009BDB781A4601E04FF0FF32019BC3F8DA
:103100003425009B1B79FF2B03D0009B1B791A46AB
:1031100001E04FF0FF32019BC3F83825009B5B793B
:10312000FF2B03D0009B5B791A4601E04FF0FF3282
:10313000019BC3F83C2500BF02B0704782B00190EC
:103140000091019BD3F82435DAB2009B1A70019BE1
:10315000D3F82835DAB2009B5A70019BD3F830358A
:10316000DAB2009B9A70019BD3F83435DAB2009B37
:10317000DA70019BD3F83835DAB2009B1A71019BE3
:10318000D3F83C35DAB2009B5A7100BF02B07047E9
:1031900082B001900091019B009AC3F8402500BFC6
:1031A00002B0704784B001900091009B1B7803939C
:1031B000009B5B78DB00039A13430393009B9B788F
:1031C0009B01039A13430393009BDB78002B01D0F0
:1031D000802300E00023039A13430393019B039A87
:1031E000C3F8442500BF04B0704784B0019000913B
:1031F000019BD3F8003623F07F4323F0FF030393B2
:10320000009B1B781A46039B13430393009B5B7838
:10321000002B02D04FF0807300E00023039A134389
:103220000393009B9B785B06039A13430393009BD5
:10323000DB781B07039A13430393019B039AC3F89C
:10324000002600BF04B0704784B003900291019241
:103250000093039B009AC3F81025029A039BC3F8BE
:103260001425039B019AC3F8182500BF04B07047CA
:1032700084B00390029101920093039B009AC3F8DB
:103280000425029A039BC3F80825039B019AC3F8FF
:103290000C2500BF04B0704784B003900291134620
:1032A0008DF80730039B029AC3F81C259DF8072070
:1032B000039BC3F8202500BF04B0704786B003907D
:1032C0000B4601928DF80B3000230593019B04936C
:1032D0009DF80B30013B082B56D801A252F823F081
:1032E000893300007333000065330000573300005A
:1032F000493300002F330000213300001333000056
:1033000005330000049B07331B781B06059A134303
:103310000593049B06331B781B04059A13430593FE
:10332000049B05331B781B02059A13430593049BEA
:1033300004331B781A46059B13430593039B059A98
:10334000C3F83C2600230593049B03331B781B061C
:10335000059A13430593049B02331B781B04059ABB
:1033600013430593049B01331B781B02059A1343F7
:103370000593049B1B781A46059B13430593039BF7
:10338000059AC3F8382600E000BF00BF06B07047BA
:1033900088B003900B4601928DF80B30019B079388
:1033A000039BD3F83C360693039BD3F8383605933A
:1033B0009DF80B30013B082B42D801A252F823F0B4
:1033C00041340000373400002B3400001F3400006B
:1033D0001334000009340000FD330000F133000015
:1033E000E5330000069B1A0E079B0733D2B21A7012
:1033F000069B1A0C079B0633D2B21A70069B1A0A58
:10340000079B0533D2B21A70079B0433069AD2B2D7
:103410001A70059B1A0E079B0333D2B21A70059BD4
:103420001A0C079B0233D2B21A70059B1A0A079B2B
:103430000133D2B21A70059BDAB2079B1A7000E012
:1034400000BF00BF08B0704782B001900091009BA0
:103450001B781A46009B5B781B021A43009B9B78E3
:103460001B031A43009BDB785B031A43009B1B7909
:103470009B031A43009B5B79DB031A43019BC3F850
:10348000342600BF02B0704782B00190019BD3F890
:10349000343603F44033B3F5803F0CBF01230023DF
:1034A000DBB2184602B0704784B001900B468DF82D
:1034B000033013468DF802309DF803301B0243F4AD
:1034C000803303939DF80230002B02D04FF4003379
:1034D00000E00023039A13430393019B039AC3F86C
:1034E000342600BF04B0704700B583B00190019B43
:1034F0001B68184600F060F80346002B04D10B4906
:103500004FF4F670FEF7F1FB019B1B681F2B02D8EE
:103510004FF0A04306E0019B1B6803F01F02019BD4
:103520001A60034B184603B05DF804FBE476000014
:103530000003005000B585B00190084611461A46B8
:1035400003468DF803300B468DF8023013468DF894
:10355000013001AB1846FFF7C7FF03909DF8032029
:103560009DF802305B001A439DF801309B001A431E
:103570009DF818301B0242EA03019DF81C301B0421
:10358000019A1943039B02F5E07243F8221000BF31
:1035900005B05DF804FB00B585B0039000230193EE
:1035A000002300930023012200210398FFF7C2FFAC
:1035B00000BF05B05DF804FB84B00190019B5B097E
:1035C000029300230393029B002B03D0029B012B49
:1035D00004D007E04FF0FF33039303E04FF6FF738F
:1035E000039300BF019B03F01F030193039A019B08
:1035F00022FA03F303F00103002B14BF012300237D
:10360000DBB2184604B0704700B583B003468DF8AE
:103610000730194B5B79DBB2002B01D0112326E078
:103620004FF480711548FFF7E9FC134B1B68002B22
:1036300006D0114B01225A7101211048FFF7FEFC00
:103640009DF8073019460D48FFF7CAFC0A4B1B6866
:10365000002B0BD100BF4FF480710848FFF7DCFC52
:10366000034683F00103DBB2002BF4D1002318469C
:1036700003B05DF804FB00BF880600200090024004
:1036800000B585B00390039B1B78FF2B0BD0039BE9
:103690005B78FF2B07D0039B9B78FF2B03D0039B0A
:1036A000DB78FF2B01D1002354E0039B1B781846E5
:1036B0000023019303230093002301220021FFF73D
:1036C00039FF039B5B781846002301930323009383
:1036D000002301220021FFF72DFF039B9B78184652
:1036E0000023019303230093002301220021FFF70D
:1036F00021FF039BDB7818460023019303230093EB
:10370000002301220021FFF715FF039B1B79FF2BEC
:103710000BD0039B1B7918460023019303230093CE
:10372000002301220021FFF705FF039B5B79FF2B9C
:103730000BD0039B5B79184600230193032300936E
:10374000002301220021FFF7F5FE03990348FFF74C
:10375000A1FC0123184605B05DF804FB009002406F
:1037600000B583B06B4619461648FFF7E7FC9DF895
:1037700000301846FFF70FFF9DF801301846FFF79D
:103780000AFF9DF802301846FFF705FF9DF8033049
:103790001846FFF700FF9DF80430FF2B04D09DF87A
:1037A00004301846FFF7F7FE9DF80530FF2B04D0D4
:1037B0009DF805301846FFF7EEFE00BF03B05DF838
:1037C00004FB00BF0090024000B583B000238DF8D9
:1037D0000730642300934FF480711048FFF71CFCFE
:1037E0000346002B03D001238DF8073008E00A20A0
:1037F000FFF7DEFB009B013B0093009B002BEAD10F
:103800009DF8073083F00103DBB2002B01D00D23BC
:1038100000E00023184603B05DF804FB009002406E
:1038200000B585B0039002910192039B002B03D158
:103830002B49B020FEF759FA2A4B1B79002B01D0F7
:10384000082349E0039B04331846FFF719FF03469A
:1038500083F00103DBB2002B01D007233CE0039B84
:103860001B6819462048FFF793FC039B0A3319464F
:103870001D48FFF797FC039B0E3319461A48FFF7C4
:10388000B4FC184B00225A71164A029B1360154A69
:10389000019B936001211448FFF7DAFB029B002B88
:1038A00008D0039B9B7C19462920FFF745FB292064
:1038B000FFF762FB0B4B01221A710B48FFF7D2FB9B
:1038C0004FF480710848FFF799FB00210648FFF785
:1038D00087FBFFF779FF0346184605B05DF804FB48
:1038E00014770000880600200090024000B585B0E3
:1038F000039002910192244B1B79002B03D12349A1
:10390000DD20FEF7F2F9204B5B79DBB2002B01D012
:10391000112335E04FF480711D48FFF76FFB029BC8
:10392000002B06D0039B5B78029A19461848FFF7D4
:10393000C5FC01211648FFF78BFB03991448FFF7DC
:1039400083FDFFF741FF03460D2B09D1039B1B7934
:10395000002B03D10D49F620FEF7C7F90D230FE028
:103960004FF480710A48FFF749FB019B002B06D0FA
:10397000039B5B78019A19460548FFF709FD002370
:10398000184605B05DF804FB880600201477000097
:103990000090024008B5174B1B79002B04D1164943
:1039A0004FF4BE70FEF7A1F91448FFF76DFD034612
:1039B000002B04D0012201211048FFF775FD2920BA
:1039C000FFF7E8FA01210D48FFF742FB10210B48F1
:1039D000FFF706FB0948FFF74FFB4FF480710748DC
:1039E000FFF70CFBFFF7BCFE024B00221A7100BF71
:1039F00008BD00BF88060020147700000090024038
:103A000000B585B0039002910192194B1B79002BF0
:103A100004D118494FF4CB70FEF767F9039B002BD4
:103A200004D1144940F29710FEF75FF90398FFF7AD
:103A300067FA034683F00103DBB2002B08D1039839
:103A4000FFF76CFA034683F00103DBB2002B01D0D1
:103A5000102309E0019B029A03990748FFF7F4FB42
:103A60000820FFF7D1FD0346184605B05DF804FBBA
:103A700088060020147700000090024000B585B051
:103A8000039002910192194B1B79002B04D1184924
:103A90004FF4D370FEF729F9039B002B04D114498E
:103AA00040F2A710FEF721F90398FFF729FA034621
:103AB00083F00103DBB2002B08D10398FFF72EFA45
:103AC000034683F00103DBB2002B01D0102309E091
:103AD000019B029A03990748FFF7CAFB0420FFF7EE
:103AE00093FD0346184605B05DF804FB88060020E8
:103AF000147700000090024000B583B003460091A7
:103B00008DF80730114B1B79002B04D1104940F27E
:103B1000B510FEF7EAF8009B1846FFF7FFF90346D9
:103B200083F00103DBB2002B01D010230AE09DF8E3
:103B300007301A4600990748FFF7AEFB0C20FFF745
:103B400063FD0346184603B05DF804FB88060020B9
:103B5000147700000090024008B54FF480710B48C4
:103B6000FFF75AFA0346002B0ED0094B00225A7178
:103B70004FF480710548FFF741FA054B1B68044A72
:103B8000926811460020984700BF08BD009002408F
:103B90008806002082B003468DF807309DF9073073
:103BA000002B0CDB9DF8073003F01F0205499DF93F
:103BB00007305B09012000FA02F241F8232000BF20
:103BC00002B0704700E100E082B003468DF8073094
:103BD0009DF90730002B13DB9DF8073003F01F021F
:103BE00009499DF907305B09012000FA02F22033F0
:103BF00041F82320BFF34F8F00BFBFF36F8F00BF8B
:103C000000BF02B0704700BF00E100E082B0034691
:103C100000918DF807309DF90730002B0ADB009BDF
:103C2000DAB20C499DF907305201D2B20B4483F845
:103C300000230BE0009BDAB207499DF8073003F040
:103C40000F03043B5201D2B20B441A7600BF02B0FC
:103C5000704700BF00E100E000ED00E082B001909D
:103C6000019B1B0B5BB2184602B0704700B583B0D6
:103C700003460A468DF8073013468DF806309DF846
:103C80000630072B03D908496B20FEF72EF89DF864
:103C900006209DF9073011461846FFF7B7FF00BF11
:103CA00003B05DF804FB00BF6877000000B583B087
:103CB00003468DF807309DF907301846FFF76AFF75
:103CC00000BF03B05DF804FB00B583B003468DF878
:103CD00007309DF907301846FFF776FF00BF03B0A5
:103CE0005DF804FB84B001900B46ADF80230BDF8DE
:103CF0000230019A134400221A60BDF80230019A82
:103D000013441B680393039B00BF04B0704782B049
:103D100001900B46ADF80230BDF80230019A134411
:103D20001B68002B14BF01230023DBB2184602B02E
:103D3000704782B001900091019B009AC3F8042360
:103D400000BF02B0704782B001900091019BD3F890
:103D50000423009B1340002B14BF01230023DBB27C
:103D6000184602B0704782B001900091019B009A02
:103D7000C3F8082300BF02B0704784B00190019BD4
:103D8000D3F880340393019B039AC3F88024039BE8
:103D9000184604B0704782B00190019B0422C3F81A
:103DA000002500BF02B0704782B00190019B002245
:103DB000C3F8002500BF02B0704784B003900291A1
:103DC0000192039B019AC3F81425039B029AC3F83E
:103DD0000C2500BF04B0704700B583B001904FF0D0
:103DE000FF324FF0FF310198FFF7E7FF00BF03B04C
:103DF0005DF804FB82B00190019BD3F80C351846A6
:103E000002B0704782B00190019BD3F81435184678
:103E100002B0704782B00190019BD3F80835184674
:103E200002B0704782B00190019BD3F8103518465C
:103E300002B0704784B0039002910192039B029AF2
:103E4000C3F80825039B019AC3F8102500BF04B0EE
:103E5000704700B583B001904FF0FF324FF0FF3153
:103E60000198FFF7E7FF00BF03B05DF804FB82B0E5
:103E70000190019BD3F81835DBB2184602B07047A9
:103E800082B001900B468DF803309DF80320019B12
:103E9000C3F81C2500BF02B0704782B001900B46EA
:103EA0008DF803309DF80330019A134401221A6003
:103EB00000BF02B0704782B001900B468DF803300E
:103EC00013468DF802309DF803209DF8023013430D
:103ED000DBB21A46019BC3F86C2500BF02B07047E5
:103EE00082B001900091019B009AC3F8242500BF85
:103EF00002B0704700B583B00190019B1B68184663
:103F000000F0A4F80346002B04D10B494FF4F670DF
:103F1000FDF7EBFE019B1B681F2B02D84FF0A0435F
:103F200006E0019B1B6803F01F02019B1A60034B14
:103F3000184603B05DF804FB9877000000030050BA
:103F400000B585B00190084611461A4603468DF823
:103F500003300B468DF8023013468DF8013001AB6B
:103F60001846FFF7C7FF03909DF803209DF8023025
:103F70005B001A439DF801309B001A439DF81830EE
:103F80001B0242EA03019DF81C301B04019A1943ED
:103F9000039B02F5E07243F8221000BF05B05DF804
:103FA00004FB00B585B00390002301930023009328
:103FB0000023012201210398FFF7C2FF00BF05B0D3
:103FC0005DF804FB00B585B003900B468DF80B300F
:103FD0009DF80B3000220192002200920022002165
:103FE0000398FFF7ADFF00BF05B05DF804FB00B517
:103FF00085B0039000230193002300930023012246
:1040000000210398FFF79CFF00BF05B05DF804FB9B
:1040100000B585B0019001AB1846FFF76BFF039028
:10402000019B012202FA03F31946039800F004F8F9
:1040300000BF05B05DF804FB82B001900091019BC8
:10404000009AC3F8082500BF02B0704784B0019001
:10405000019B5B09029300230393029B002B03D077
:10406000029B012B04D007E04FF0FF33039303E0E2
:104070004FF6FF73039300BF019B03F01F030193EF
:10408000039A019B22FA03F303F00103002B14BFF0
:1040900001230023DBB2184604B0704700B583B09B
:1040A00001900091009B1B68B3F1FF3F09D0009B7A
:1040B0001B681846FFF7ACFF009B1B681846FFF70C
:1040C00070FF009B5B68B3F1FF3F05D0009B5B680E
:1040D00000211846FFF776FF019B1A68009B9B6939
:1040E00019461046FFF7FCFE019B1868009B597D9E
:1040F000009B1B7D1A46FFF7DEFE019B1868009BA4
:104100001968009B5B681A46FFF757FE009B1B7DF2
:10411000012B22D1009B9B68B3F1FF3F05D0009B90
:104120009B6800211846FFF74DFF009BDB68B3F149
:10413000FF3F09D0009BDB681846FFF769FF009B33
:10414000DB681846FFF72DFF019B1868009BD968B4
:10415000009B9B681A46FFF76DFE00BF03B05DF839
:1041600004FB000000B583B001900B468DF80330CE
:10417000019B1B684FF48E711846FFF7B3FD019B3E
:104180001B684FF4A2711846FFF7ACFD019B1B683A
:104190000E491846FFF7CDFD019B1B681846FFF737
:1041A0005DFD03461A469DF8033019461046FFF799
:1041B0005DFD019B1B681846FFF750FD034618463E
:1041C000FFF774FD00BF03B05DF804FB8000020040
:1041D00000B583B00190019B1B6808491846FFF7A2
:1041E000C2FD019B1B681846FFF738FD03461846C1
:1041F000FFF76AFD00BF03B05DF804FB8402020014
:1042000000B587B00190019B1B681846FFF7F2FDCF
:104210000590019B1B681846FFF7F4FD0490019B75
:104220001B681846FFF7F6FD0390019B1B681846B4
:10423000FFF7F8FD0290019B1B681846FFF7CCFDC5
:10424000019B1B681846FFF704FE059BB3F1FF3F77
:1042500002D00598FFF7CBFE049BB3F1FF3F02D0DD
:104260000498FFF7C4FE029BB3F1FF3F02D002980F
:10427000FFF7BDFE039BB3F1FF3F02D00398FFF7AA
:10428000B6FE00BF07B05DF804FB000000B587B0C4
:10429000039002910192029B002B03D12D49AA2089
:1042A000FDF723FD039B1B791A462C2302FB03F326
:1042B000294A1344049300230593049B93F82A305E
:1042C000002B03D008230593059B3EE0039B1A684F
:1042D000039B1B791946214B53F821301946104690
:1042E000FEF752FD0346002B03D011230593059BD7
:1042F0002BE002990398FFF7D1FE049B019A5A60C4
:10430000029B1A69049B1A60049B5B68002B05D012
:10431000029B1B7F19460398FFF724FF039B1B6832
:104320001846FFF738FD049B00229A61049B002287
:10433000DA61049B002283F82920049B00225A6141
:10434000049B012283F82A20059B184607B05DF8DC
:1043500004FB00BFD0770000940600201478000012
:1043600000B585B00190019B1B791A462C2302FBF6
:1043700003F3114A13440393019B1B681846FFF78C
:1043800013FD039B5B68002B02D00198FFF720FF11
:104390000198FFF735FF019B1B681846FEF72EFDBD
:1043A000039B002283F82A20039B00225A6000BF4F
:1043B00005B05DF804FB00BF9406002000B585B091
:1043C000019000914FF48E710198FFF78BFC009BD8
:1043D0009A68009B1B6A13441B788DF80F30009B72
:1043E0001B6A5A1C009B1A629DF80F3019460198EF
:1043F000FFF746FD00BF05B05DF804FB00B585B0D2
:1044000001900091009B5B69039316E0009B93F879
:104410002830DBB2002B01D0002314E04FF48E7162
:104420000198FFF774FC034683F00103DBB2002B15
:10443000ECD100990198FFF7C1FF009B1B6A039A1A
:104440009A42EBD80123184605B05DF804FB000042
:1044500000B587B0039002910192039B1B791A4625
:104460002C2302FB03F33C4A13440493049B93F86C
:104470002A30012B04D039494FF48C70FDF735FCFC
:10448000029B002B04D1354940F21910FDF72DFC99
:10449000019B002B04D131494FF48D70FDF725FCB1
:1044A000039800F05DF80346002B03D01123059319
:1044B000059B4CE0049B019A5A61049B029A9A6006
:1044C000049B00221A62049B002283F82820002308
:1044D0000593039B1B684FF48E711846FFF702FC8F
:1044E000039B1B6808211846FFF7D7FC039B1B683A
:1044F00004991846FFF762FF049B5B68002B25D1E7
:10450000039B1B6804991846FFF778FF034683F066
:104510000103DBB2002B02D00F23059313E000BF91
:10452000039B1B684FF48E711846FFF7F0FB0346A0
:1045300083F00103DBB2002BF2D1039B1B680C213B
:104540001846FFF7AAFC049B00225A61059B1846F7
:1045500007B05DF804FB00BF94060020D077000090
:1045600082B00190019B1B791946074A2C2301FB5D
:1045700003F3134414331B68002B14BF01230023DF
:10458000DBB2184602B070479406002010B582B026
:1045900001900091009B9B69002B08D14FF484711E
:1045A0000198FFF79FFB0198FFF761FC13E04FF4C0
:1045B00084710198FFF796FB009BDA68009B5B6AA9
:1045C000D4180198FFF753FC03462370009B5B6AE5
:1045D0005A1C009B5A6202B010BD00B589B003900E
:1045E0000291019201238DF81030029B0693019BEA
:1045F0000593039B5B68039A116804AA10469847C9
:1046000000BF09B05DF804FB00B587B001900091D0
:1046100000238DF80830009B0493019B9B68039353
:10462000019B00225A61019B5B68019A116802AAF2
:104630001046984700BF07B05DF804FB00B58BB08B
:10464000019000914FF400710198FFF77CFB034645
:10465000002B39D04FF492710198FFF758FB0346B5
:10466000002B31D04FF492710198FFF73BFB4FF4D0
:1046700001710198FFF777FB009B93F8293083F0D5
:104680000103DBB2002B03D004210198FFF705FCE6
:1046900002238DF80C300198FFF76FFB0346069359
:1046A000009B9B690593009BDB680493009B0022A1
:1046B0009A61009B0022DA61009B5B68009A116896
:1046C00003AA1046984752E004210198FFF73BFBEC
:1046D0000346002B4BD04FF484710198FFF717FB72
:1046E0000346002B43D000990198FFF74FFF009B32
:1046F0009A69009B5B6A9A4239D1009BDB69002B67
:1047000019D0009BDB680993009B5B6A0893009BB0
:10471000DA69009B9A61009B1A69009BDA60009B32
:104720000022DA61009B00225A62099A08990098D7
:10473000FFF753FF1BE0009B93F8293083F0010340
:10474000DBB2002B03D004210198FFF7A6FB4FF446
:1047500001710198FFF707FB009B00229A61009B03
:10476000596A009BDB681A460098FFF736FF4FF442
:104770008E710198FFF7CBFA0346002B24D0009BE3
:104780005B690793009B1B6A079A9A420DD9009BAD
:1047900093F82830DBB283F00103DBB2002B04D0A6
:1047A00000990198FFF70AFE0EE04FF48E71019810
:1047B000FFF798FA009B5B69002B05D0009B5B69B3
:1047C00019460098FFF720FF4FF4A2710198FFF7F8
:1047D0009EFA0346002B1CD04FF4A2710198FFF7FC
:1047E00081FA009B93F82930002B03D00021019817
:1047F000FFF753FB009B9B69002B0AD0009B002214
:104800009A61009B596A009BDB681A460098FFF783
:10481000E4FE00BF0BB05DF804FB000008B50349DF
:104820000348FFF70BFF00BF08BD00BF9406002040
:104830000020004082B003468DF807309DF9073014
:10484000002B0CDB9DF8073003F01F0205499DF992
:1048500007305B09012000FA02F241F8232000BF73
:1048600002B0704700E100E082B003468DF80730E7
:104870009DF90730002B13DB9DF8073003F01F0272
:1048800009499DF907305B09012000FA02F2203343
:1048900041F82320BFF34F8F00BFBFF36F8F00BFDE
:1048A00000BF02B0704700BF00E100E082B00346E5
:1048B00000918DF807309DF90730002B0ADB009B33
:1048C000DAB20C499DF907305201D2B20B4483F899
:1048D00000230BE0009BDAB207499DF8073003F094
:1048E0000F03043B5201D2B20B441A7600BF02B050
:1048F000704700BF00E100E000ED00E082B00190F1
:10490000019B03F06043B3F1005F0CBF0123002360
:10491000DBB2184602B0704782B00190019B1B0BBE
:104920005BB2184602B0704700B583B003460A4632
:104930008DF8073013468DF806309DF80630072BAA
:1049400003D908496B20FDF7D0F99DF806209DF9A1
:10495000073011461846FFF7A9FF00BF03B05DF806
:1049600004FB00BF1878000000B583B003468DF843
:1049700007309DF907301846FFF75CFF00BF03B012
:104980005DF804FB00B583B003468DF807309DF950
:1049900007301846FFF768FF00BF03B05DF804FB5F
:1049A00084B001900B46ADF80230BDF80230019A98
:1049B000134400221A60BDF80230019A13441B68A8
:1049C0000393039B00BF04B0704782B001900B4675
:1049D000ADF80230BDF80230019A13441B68002B79
:1049E00014BF01230023DBB2184602B0704782B027
:1049F00001900091019BD3F80022009BDB431A40F9
:104A0000019BC3F8002200BF02B0704782B0019042
:104A10000091019B009AC3F8042300BF02B07047C5
:104A200082B001900091019B009AC3F8082300BF57
:104A300002B0704784B00190019BD3F88034039397
:104A4000019B039AC3F88024039B184604B0704767
:104A500082B00190019B0822C3F8002500BF02B07C
:104A6000704782B00190019B0022C3F8002500BF6F
:104A700002B0704784B0039002910192039B029AA6
:104A8000C3F80C25039B019AC3F8142500BF04B09A
:104A9000704700B583B001904FF0FF324FF0FF3107
:104AA0000198FFF7E7FF00BF03B05DF804FB82B099
:104AB0000190019BD3F80C35184602B0704782B0C4
:104AC0000190019BD3F81435184602B0704782B0AC
:104AD0000190019BD3F80835184602B0704782B0A8
:104AE0000190019BD3F81035184602B0704784B08E
:104AF000039002910192039B029AC3F80825039B3D
:104B0000019AC3F8102500BF04B0704700B583B008
:104B100001904FF0FF324FF0FF310198FFF7E7FFB0
:104B200000BF03B05DF804FB82B001900B468DF826
:104B300003309DF80330019A134401221A6000BF2C
:104B400002B0704782B001900B468DF803301346D7
:104B50008DF802309DF803209DF802301343DBB23C
:104B60001A46019BC3F86C2500BF02B0704782B0A3
:104B700001900091019B009AC3F8242500BF02B068
:104B8000704784B0039002910192029A039BC3F88C
:104B90004425039B019AC3F8482500BF04B0704721
:104BA00082B00190019BD3F84C35184602B0704793
:104BB00082B00190019BD3F83C35184602B0704793
:104BC00000B583B00190019B1B68184600F0A4F863
:104BD0000346002B04D10B494FF4F670FDF785F81E
:104BE000019B1B681F2B02D84FF0A04306E0019BDE
:104BF0001B6803F01F02019B1A60034B184603B0A9
:104C00005DF804FB487800000003005000B585B053
:104C10000190084611461A4603468DF803300B46AC
:104C20008DF8023013468DF8013001AB1846FFF7BE
:104C3000C7FF03909DF803209DF802305B001A43E4
:104C40009DF801309B001A439DF818301B0242EA80
:104C500003019DF81C301B04019A1943039B02F5C4
:104C6000E07243F8221000BF05B05DF804FB00B508
:104C700085B00390002301930023009300230122B9
:104C800001210398FFF7C2FF00BF05B05DF804FBE8
:104C900000B585B003900B468DF80B309DF80B30B6
:104CA0000022019200220092002200210398FFF7C7
:104CB000ADFF00BF05B05DF804FB00B585B0039003
:104CC0000023019300230093002301220021039875
:104CD000FFF79CFF00BF05B05DF804FB00B585B091
:104CE000019001AB1846FFF76BFF0390019B012277
:104CF00002FA03F31946039800F004F800BF05B068
:104D00005DF804FB82B001900091019B009AC3F80A
:104D1000082500BF02B0704784B00190019B5B0979
:104D2000029300230393029B002B03D0029B012BD1
:104D300004D007E04FF0FF33039303E04FF6FF7317
:104D4000039300BF019B03F01F030193039A019B90
:104D500022FA03F303F00103002B14BF0123002305
:104D6000DBB2184604B0704700B583B001900091E3
:104D7000009B1B68B3F1FF3F09D0009B1B681846DE
:104D8000FFF7ACFF009B1B681846FFF770FF009B06
:104D90005B68B3F1FF3F05D0009B5B6800211846BC
:104DA000FFF776FF019B1A68009B9B691946104626
:104DB000FFF7DDFE019B1868009B597D009B1B7D62
:104DC0001A46FFF7BFFE019B1868009B1968009BFD
:104DD0005B681A46FFF74EFE009B1B7D012B22D11C
:104DE000009B9B68B3F1FF3F05D0009B9B680021AF
:104DF0001846FFF74DFF009BDB68B3F1FF3F09D07A
:104E0000009BDB681846FFF769FF009BDB681846CC
:104E1000FFF72DFF019B1868009BD968009B9B68DA
:104E20001A46FFF764FE00BF03B05DF804FB000004
:104E300000B583B001900B468DF80330019B1B68D1
:104E40004FF488711846FFF7ABFD019B1B684FF4C8
:104E500090711846FFF7A4FD019B1B684FF49271F7
:104E60001846FFF79DFD019B1B684FF4A271184681
:104E7000FFF796FD019B1B684FF4AC711846FFF7D6
:104E80008FFD019B1B680F491846FFF7BFFD019B73
:104E90001B681846FFF740FD03461A469DF803308D
:104EA00019461046FFF740FD019B1B681846FFF7A7
:104EB00033FD03461846FFF757FD00BF03B05DF80A
:104EC00004FB00BF1003420000B583B00190019BBA
:104ED0001B6808491846FFF7A3FD019B1B6818468D
:104EE000FFF71AFD03461846FFF74CFD00BF03B05D
:104EF0005DF804FB1003420000B587B00190019BF0
:104F00001B681846FFF7D3FD0590019B1B681846E8
:104F1000FFF7D5FD0490019B1B681846FFF7D7FDEE
:104F20000390019B1B681846FFF7D9FD0290019B77
:104F30001B681846FFF7ADFD019B1B681846FFF77D
:104F4000E5FD059BB3F1FF3F02D00598FFF7B5FEE5
:104F5000049BB3F1FF3F02D00498FFF7AEFE029B23
:104F6000B3F1FF3F02D00298FFF7A7FE039BB3F116
:104F7000FF3F02D00398FFF7A0FE00BF07B05DF827
:104F800004FB000000B587B0039002910192029BE0
:104F9000002B03D12B49CF20FCF7A7FE039B1B79E5
:104FA0001A461346DB0013449B00274A134404931C
:104FB00000230593049B93F82030002B03D0082393
:104FC0000593059B3AE0039B1A68039B1B791946DE
:104FD0001E4B53F8213019461046FDF7D5FE034607
:104FE000002B03D011230593059B27E0029903981A
:104FF000FFF7BAFE049B019A5A60029B1A69049B50
:105000001A60049B5B68002B05D0029B1B7F19462E
:105010000398FFF70DFF039B1B681846FFF718FD69
:10502000049B00229A61049B0022DA61049B002207
:105030005A61049B012283F82020059B184607B083
:105040005DF804FB80780000C0060020C8780000EE
:1050500000B585B00190019B1B791A461346DB0011
:1050600013449B002A4A13440393019B1B68029339
:10507000039B5B68002B02D00198FFF725FF2021DE
:105080000298FFF7B4FC039B9B69002B08D04FF4F8
:10509000A2710298FFF784FC04210298FFF744FDF7
:1050A0004FF4AC710298FFF77BFC0C210298FFF7DC
:1050B0003BFD00BF4FF4AC710298FFF786FC03463E
:1050C00083F00103DBB2002BF4D1039B9B69002B1F
:1050D0000AD04FF4A2710298FFF777FC034683F0E1
:1050E0000103DBB2002BE5D10298FFF7BAFC01986F
:1050F000FFF702FF0298FDF781FE039B002283F871
:105100002020039B00225A6000BF05B05DF804FB1D
:10511000C006002000B589B0039002910192039B64
:105120001B791A461346DB0013449B00574A13446D
:105130000593059B93F82030012B04D0544940F28D
:105140005310FCF7D2FD029B002B04D150494FF4C1
:10515000AA70FCF7CAFD019B002B04D14C4940F218
:105160005510FCF7C2FD039B1B79002B03D1019B5B
:10517000B3F5803F04D346494FF4AB70FCF7B5FD5F
:105180000298FFF7BBFB034683F00103DBB2002B61
:1051900003D010230793079B73E0039800F07AF87D
:1051A0000346002B03D011230793079B69E0059B5F
:1051B000019A5A61059B029A9A6000230793039B08
:1051C0001B684FF490711846FFF7EAFB039B1B68BE
:1051D0004FF4AC711846FFF7E3FB039B1868059B7F
:1051E0009968059B5B691A46FFF7CBFC039B1B681C
:1051F00008211846FFF798FC059B5B68002B3FD100
:10520000039B1B684FF490711846FFF7DEFB0346C3
:105210008DF81B30039B1B684FF4AC711846FFF7E9
:10522000D4FB03468DF81A309DF81B3083F0010340
:10523000DBB2002B06D09DF81A3083F00103DBB2FD
:10524000002BDDD19DF81A30002B02D00F230793DD
:1052500013E0039B1B680C211846FFF765FC00BF99
:10526000039B1B684FF4AC711846FFF7AEFB034677
:1052700083F00103DBB2002BF2D1059B00225A61BF
:10528000079B184609B05DF804FB00BFC00600206C
:105290008078000082B00190019B1B791946084A72
:1052A0000B46DB000B449B00134414331B68002B9C
:1052B00014BF01230023DBB2184602B0704700BFC1
:1052C000C006002000B589B003900291019201232D
:1052D0008DF81030029B0693019B0593039B5B683E
:1052E000039A116804AA1046984700BF09B05DF8F8
:1052F00004FB00B587B00190009100238DF80830C1
:10530000009B0493019B9B680393019B00225A61BD
:10531000019B5B68019A116802AA1046984700BF7A
:1053200007B05DF804FB00B589B0019000914FF41F
:1053300092710198FFF749FB0346002B22D04FF4EE
:1053400092710198FFF72CFB02238DF80830019829
:10535000FFF770FB034605930198FFF729FC03460E
:105360000493009BDB680393009B00229A61009BDF
:105370000022DA61009B5B68009A116802AA10465D
:1053800098473BE04FF488710198FFF71EFB0346F6
:10539000002B33D04FF488710198FFF701FB01987F
:1053A000FFF706FC0790009B9B69079A9A4225D15C
:1053B000009BDB69002B17D0009BDB680693202144
:1053C0000198FFF714FB009BDA69009B9A61009B30
:1053D0001A69009BDA60009B0022DA61069A07993D
:1053E0000098FFF76FFF09E0009B00229A61009B85
:1053F000DB681A4607990098FFF764FF4FF4A27123
:105400000198FFF7E2FA0346002B18D04FF4A2717F
:105410000198FFF7C5FA009B9B69002B0FD0009BFA
:1054200000229A61009B0022DA610198FFF7C0FB1D
:105430000146009BDB681A460098FFF743FF4FF4D4
:1054400090710198FFF7C1FA0346002B14D04FF476
:1054500090710198FFF7A4FA0C210198FFF764FB03
:10546000009B5B69002B07D00198FFF799FB03466F
:1054700019460098FFF73DFF4FF4AC710198FFF714
:10548000A4FA0346002B10D04FF4AC710198FFF73B
:1054900087FA009B5B69002B07D00198FFF780FB20
:1054A000034619460098FFF724FF00BF09B05DF8D6
:1054B00004FB000008B503490348FFF734FF00BFB1
:1054C00008BD00BFC00600200020004082B0034697
:1054D0008DF807309DF90730002B0CDB9DF8073065
:1054E00003F01F0205499DF907305B09012000FA0E
:1054F00002F241F8232000BF02B0704700E100E053
:1055000082B0034600918DF807309DF90730002BDB
:105510000ADB009BDAB20C499DF907305201D2B286
:105520000B4483F800230BE0009BDAB207499DF897
:10553000073003F00F03043B5201D2B20B441A763A
:1055400000BF02B0704700BF00E100E000ED00E0E6
:1055500000B583B003460A468DF8073013468DF830
:1055600006309DF80630072B03D908496B20FCF75D
:10557000BCFB9DF806209DF9073011461846FFF741
:10558000BFFF00BF03B05DF804FB00BFCC78000094
:1055900000B583B003468DF807309DF907301846F3
:1055A000FFF794FF00BF03B05DF804FB82B00190E9
:1055B0000091019B009AC3F8042300BF02B070471A
:1055C00082B001900091019B009AC3F8082300BFAC
:1055D00002B0704782B001900091019BD3F8042380
:1055E000009B1340184602B0704782B001900B46F2
:1055F000ADF80230BDF80230019A13441B6818461A
:1056000002B0704784B001900B46ADF80230BDF88F
:105610000230019A134400221A60BDF80230019A48
:1056200013441B680393039B00BF04B07047000042
:1056300000B583B001900091009BB3F5805F04D367
:1056400006494FF4BE70FCF750FB019B009AC3F86B
:10565000082500BF03B05DF804FB00BFFC78000024
:1056600082B001900B468DF803309DF80320019B1A
:1056700013441A460123136000BF02B0704782B082
:1056800001900091019B009AC3F8442300BF02B02F
:10569000704782B001900091019B009AC3F84823A3
:1056A00000BF02B07047000000B587B003900291C0
:1056B0000192029B002B03D131495120FCF715FBCD
:1056C000019B002B03D12E495220FCF70EFB039BBC
:1056D0005B7919462B4A019B42F82130039B5B7989
:1056E0001946294A0B465B000B4413441B78002BD8
:1056F00003D008230593059B3DE0039B93F9042009
:10570000029B9B7819461046FFF722FF039B93F9F3
:1057100004301846FFF73CFF039B1A68029B1B8866
:1057200019461046FFF784FF039B5B791946029BDD
:105730001879154A0B465B000B44134401330246AB
:105740001A70039B5B791946029BD8780E4A0B4668
:105750005B000B441344023302461A70039B5B79CF
:105760001946094A0B465B000B44134401221A7088
:1057700000230593059B184607B05DF804FB00BFA6
:1057800030790000E4060020E806002000B583B070
:105790000190019B5B7919460F4A0B465B000B4455
:1057A00013441B78012B03D00C498220FCF79DFA8F
:1057B000019B1B6800211846FFF752FF019B5B7994
:1057C0001946054A0B465B000B44134402221A702B
:1057D00000BF03B05DF804FBE8060020307900004C
:1057E00000B585B001900B468DF803304FF48073FF
:1057F000ADF80E3001230293019B1B68BDF80E200B
:1058000011461846FFF7FEFE019B1B6802991846D9
:10581000FFF735FF9DF80330002B05D0019B1B6877
:1058200002991846FFF7C2FE00BF05B05DF804FB01
:1058300000B585B001900B468DF803304FF48273AC
:10584000ADF80E3002230293019B1B68BDF80E20B9
:1058500011461846FFF7D6FE019B1B6802991846B1
:10586000FFF70DFF9DF80330002B05D0019B1B684F
:1058700002991846FFF79AFE00BF05B05DF804FBD9
:1058800000B589B00390029101924FF480330693E2
:105890004FF4A073ADF81E300023059330E0069955
:1058A0000398FFF797FE0346002B1ED0BDF81E306D
:1058B00019460398FFF799FE0346002B15D0069969
:1058C0000398FFF7E6FE06990398FFF779FEBDF807
:1058D0001E3019460398FFF795FE2D4A029B52F899
:1058E0002330059AD2B210469847069B5B00069378
:1058F000BDF81E300433ADF81E30059B013305930F
:10590000059A019B9A42CAD34FF48073ADF81E30BA
:1059100001210398FFF75EFE0346002B14D0BDF86B
:105920001E3019460398FFF760FE0346002B0BD08C
:10593000BDF81E3019460398FFF764FE144A029B17
:1059400052F82330042098474FF48273ADF81E308C
:1059500002210398FFF73EFE0346002B14D0BDF84A
:105960001E3019460398FFF740FE0346002B0BD06C
:10597000BDF81E3019460398FFF744FE044A029B07
:1059800052F823300520984700BF09B05DF804FBAA
:10599000E406002008B5042200210248FFF770FF4A
:1059A00000BF08BD0040024082B003468DF80730BA
:1059B0009DF90730002B0CDB9DF8073003F01F0228
:1059C00005499DF907305B09012000FA02F241F810
:1059D000232000BF02B0704700E100E082B0034620
:1059E00000918DF807309DF90730002B0ADB009BF2
:1059F000DAB20C499DF907305201D2B20B4483F858
:105A000000230BE0009BDAB207499DF8073003F052
:105A10000F03043B5201D2B20B441A7600BF02B00E
:105A2000704700BF00E100E000ED00E082B00190AF
:105A3000019B1B0B5BB2184602B0704700B583B0E8
:105A400003460A468DF8073013468DF806309DF858
:105A50000630072B03D908496B20FCF746F99DF85F
:105A600006209DF9073011461846FFF7B7FF00BF23
:105A700003B05DF804FB00BF7479000000B583B08B
:105A800003468DF807309DF907301846FFF78CFF65
:105A900000BF03B05DF804FB82B003468DF8073009
:105AA0000F4A9DF90730002B00DA1F335B115BB200
:105AB00052F823209DF90730594203F01F0301F0EB
:105AC0001F0158BF4B425BB222FA03F303F00103FC
:105AD000002B14BF01230023DBB2184602B070472D
