:1000000000000420750300005D0300005F03000092
:1000100061030000630300006503000000000000AE
:100020000000000000000000000000006703000066
:1000300069030000000000006B0300006D03000076
:100040008D2600006F030000D11500006F03000033
:100050006F0300006F0300006F0300006F030000D8
:100060006F0300006F0300006F0300006F030000C8
:100070006F0300006F0300006F0300006F030000B8
:100080006F0300006F0300006F0300006F030000A8
:100090006F0300006F0300006F0300006F03000098
:1000A0006F0300006F0300006F0300006F03000088
:1000B0006F0300006F03000000000000000000005C
:1000C0006F0300006F0300006F0300006F03000068
:1000D000852500006F0300006F0300006F03000020
:1000E0006F030000B51A00006F030000000000005D
:1000F000000000006F030000000000006F0300001C
:1001000000000000000000000000000000000000EF
:1001100000000000000000000000000000000000DF
:1001200000000000000000000000000000000000CF
:1001300000000000000000000000000000000000BF
:1001400000000000000000000000000000000000AF
:10015000000000000000000000000000000000009F
:10016000000000000000000000000000000000008F
:10017000000000000000000000000000000000007F
:10018000000000000000000000000000000000006F
:10019000000000000000000000000000000000005F
:1001A000000000000000000000000000000000004F
:1001B000000000000000000000000000000000003F
:1001C000000000000000000000000000000000002F
:1001D000000000000000000000000000000000001F
:1001E000000000000000000000000000000000000F
:1001F00000000000000000000000000000000000FF
:10020000354936480A1A02D0072291438D463449AF
:1002100034480A1A06D00722914381F30988022242
:1002200082F3148830483149314A00F044F83148AB
:100230003149324A00F03FF831483249324A00F041
:100240003AF832483249334A00F035F832483349F7
:10025000334A00F030F833483349344A00F02BF881
:1002600033483449344A00F026F8344834490022EF
:1002700000F02CF833483449002200F027F83348C6
:100280003349091A082902DB002202604160314A21
:1002900090471F481F49884205D00268043003B4C4
:1002A000904703BCF7E700208646EC46002000217B
:1002B000294A9047FEE7884207D0521A05D00378B2
:1002C00001300B700131013AF9D17047884202D0F8
:1002D00002700130FAE770470000042000E00320BC
:1002E0000000042000000420E03400000000002092
:1002F00038000020D0030000D0030000AC2E000026
:10030000E03400000000002000000020082F000062
:10031000082F0000082F0000082F0000082F000001
:10032000082F0000082F0000082F0000E034000014
:100330001835000038000020380000203800002068
:10034000B8080020B8080020B8080020B80800202D
:10035000B82800209D030000BD270000FEE7FEE74F
:10036000FEE7FEE7FEE7FEE7FEE7FEE7FEE7FEE765
:1003700000F002B8FFF7FCBF0F484FF007018843B9
:1003800085460E4880470E48016841F470010160BF
:10039000BFF34F8FBFF36F8FFFF732BF09480A4992
:1003A0000A4A884207D0521A05D0037801300B70F0
:1003B0000131013AF9D1704700000420BD2A000044
:1003C00088ED00E0082F0000000000200000002061
:1003D000F0B595B01D46164608460C4601F056F895
:1003E0001A9B0D93CDE9086500252B460C2205A923
:1003F00020460A958DF82C500C9501F063F8079B68
:100400000293069B03939DF814308DF8115003F06E
:100410000302012A1DD1BDF81420059DC3F3C203B8
:10042000C2F383168DF81030B2000C230EA92046BB
:1004300001F048F8C5F3952508AB0093324602ABAE
:100440000EA9284600F0C2FB204601F023F815B0A3
:10045000F0BD022AF8D1BDF81650C3F3C203C5F3AC
:1004600089158DF810300C27082D2E4628BF082638
:100470003B4632460EA9204601F024F8AD1B08ABDE
:1004800002AA31460EA8374400F004FC002DEBD13F
:10049000DAE7704707B5044B0093044A4023FFF79F
:1004A00097FF03B05DF804FBF10400003900002061
:1004B00030B50C4D0FCD89B06C460FC495E80F00D8
:1004C00084E80F000623084800930022694601F0E3
:1004D00041F808B100F094FC044B00221A7009B0F6
:1004E00030BD00BF082F00000000002038000020B1
:1004F00038B50D480D4C0E4D002323700378EB5C8E
:10050000D2B263B1043001F07DFF08B100F078FC95
:10051000084B1A7812B12378002BFBD038BD0C3071
:1005200001F000FDF1E700BF00000020790000208D
:10053000200600203800002008B50848084A037843
:10054000D35C33B1043001F0CDFEBDE80840FFF7C5
:10055000AFBF0C3001F07EFCF7E700BF00000020C9
:1005600020060020FFF7A4BF08B5FFF7FBFF0448F3
:10057000042100F065FA034B01225A7108BD00BF47
:10058000E42E000014000020037813F0040216D0BB
:1005900003F00303012B03D0022B09D00120704785
:1005A0000A6800880332C0F3831002440A60F5E74A
:1005B0000B684288033303EB92130B60EEE710469F
:1005C000704700002DE9F04FDFF810A10F4685B00D
:1005D0000446C61C0020154600F068FCDAF804202A
:1005E0003A60DAF8083003F580739B1A0AF21C4768
:1005F0000AF583690AF21448B34219D30020002D8A
:1006000067D004F00F039B0143F0050363F30F0071
:10061000DAF80430DAB2033233444AF82200002018
:10062000CAF8043000F044FC012005B0BDE8F08FAA
:100630000121384600F061FC484600F076FC404657
:1006400000F073FCDAF808000090C0B203300AEB47
:1006500080006946FFF798FF009B08B1D8B2F5E724
:10066000DAB20AEB8202591CD2680192C9B20AEBD3
:10067000810102F003020333012AC96800931ED0EE
:10068000022A24D1BDF80620C2F3891203324FEAB0
:10069000114B03EB92030093404600F049FC10B16C
:1006A000009BCAF808305946384600F026FCDAF8B4
:1006B0000830DAF8042003F580739B1A9CE7BDF834
:1006C0000420C2F383124FEA114B1344E3E783463D
:1006D000E2E7A40544F006009AE700BF4C010020C1
:1006E00038B50446084684B1094D01232B7000F04B
:1006F0002DFB0848C5F80C4400F081FE044610B9F3
:10070000054800F0E9FE204638BD0724FBE700BF9E
:100710004C010020F42E00005C2F000030B50A4C84
:1007200071B10A4A0A49121BD20800239A4201D128
:10073000002030BD31F82350854202D00133F5E767
:10074000034654F83300F4E7AC2E0000E42E00001A
:1007500000000020094B013903EBC000032909D830
:10076000DFE801F00A0204060420704700797047B0
:10077000407970470020704702207047AC2E00007F
:10078000034BD3E90130C31A58425841704700BFA8
:100790004C0100202DE9FF41FFF7F2FF054600283C
:1007A00040F0EE80774CC4F81804BFF34F8FA36875
:1007B0000093DBB2033304EB83006946FFF7E4FEEA
:1007C000009B50B1D4F818243AB962689A42F0D824
:1007D000A260284604B0BDE8F081591CC9B204EB00
:1007E0008101DAB2C968029104EB8202991CD268D5
:1007F0000192C9B2033304EB8101009302F00303B9
:10080000C9680391022B4CD1BDF806305E48C3F392
:100810008917502F3E4628BF502606F10C0166F37B
:100820008F13C1F30901ADF8063000F000FE054654
:10083000002800F0908000F029FE0C2201A9284633
:10084000002300F035FE0099C843C0B20130C9B2A0
:100850000331B6EB800F4FEA800204EB81011DD912
:100860005FFA82F80C23A6EB0806284600F020FE6B
:10087000F6B208F10C03454903F0FC033246284662
:1008800000F016FE009B033703EB97070097D4F8A0
:100890001834002B3BD1D4F810644BE00C233246C3
:1008A000EDE7012B57D1BDF804303748C3F383116E
:1008B000062928BF062161F38913033101F00F01D6
:1008C0008900ADF8043000F0B2FD0546002842D0A2
:1008D00000F0DCFD00230C2201A9284600F0E8FD11
:1008E0000026BDF80420C2F38312B300964203F140
:1008F0000C03CCD200994A1CC9B20331009204EB1C
:1009000081010422284600F0D3FD0136E9E728469C
:1009100000F0C0FDFFF734FF80F00100C5B258E7DA
:10092000F3685B7923B1336829461B6830469847E2
:10093000F3681E68002EF3D1284600F0ABFD304668
:1009400000F0B4FAD4F818340BB9009BA36000206F
:1009500000F0AEFADEE7D4F8104454B90C4B0D4861
:100960000D49C01AC008000440F0020000F064F80D
:10097000D0E7236820469B689847E3681C68ECE74B
:10098000002526E74C010020F42E0000580100202D
:10099000AC2E0000D42E0000452F00002DE9F347B7
:1009A00004460E46924601A9012218469946FFF7D1
:1009B00009FE1F4F50B3019D4FF00008EA1CC845C7
:1009C00008EB02012BD100211A4800F073FA80F3E2
:1009D00010006B1CDBB207EB8303000440EA1440F9
:1009E000D860E400D7F80C34984704F03804AB1C06
:1009F000DBB2EDB244F0010407EB8303033544EAB4
:100A0000881444EA8624D86047F825403B781BB117
:100A1000FFF7C0FE0028FBD102B0BDE8F087C9B2E5
:100A200007EB81015AF82830CB6008F10108C6E7CE
:100A30004C0100206805002000231A46FFF7AEBFD6
:100A400030B50F4CD4F8102403460020114631B9BC
:100A5000D96808714AB9C4F810340A6030BDC96851
:100A60000D79854206D00968F1E7D26814680C60F8
:100A70001360F3E701300A28E8D14FF0FF30EDE7CB
:100A80004C01002038B5084B0125D3F810441D70E7
:100A900004B938BDE3685D71236820465B689847F8
:100AA000E3681C68F4E700BF4C010020F0B5C38880
:100AB00087B005460E4633B1294A009229492A4A91
:100AC000304600F08FFA297A052946D06B7A4BB16F
:100AD000A888FFF73FFE254B254953F820203046D4
:100AE00000F080FA234B2C681B68B4FBF3F4224B14
:100AF0001868B4FBF0F34FF47A7E00FB13444FF414
:100B000061610EFB04F4B3FBF1F23C2701FB1231EF
:100B1000B4FBF0FCB1FBF7F300FB1C4407FB131123
:100B20000EFB04F40091B4FBF0F41449CDE901C4C8
:100B3000304600F057FA2A7A114BA88853F8222041
:100B400005920021FFF7EAFD059A0E49034630465B
:100B500007B0BDE8F04000F045BA07B0F0BD00BFF7
:100B6000882F0000702F0000682F00001030000058
:100B70008D2F00000806002004060020902F0000A2
:100B800034300000AC2F000007B503460846197A40
:100B9000052911D05B7A2BB1094A0A49019000F06E
:100BA00021FA01980849019000F01CFA019803B05D
:100BB0005DF804EB00F00BBA002AF8D0F2E700BFB2
:100BC000882F00008D2F0000852F00002DE9F043B5
:100BD00085B01F460C9D002395F80C902B7306469C
:100BE0000C46904629463846FFF760FFB8F1060FDD
:100BF00009D8DFE808F00412181F283340003146F6
:100C0000284600F0EFF9002229463846FFF7BCFFDE
:100C100085F80C9005B0BDE8F0832268314628467F
:100C200000F0E0F9EFE7D4E900233146284600F070
:100C3000D9F9E8E7A36800933146D4E900232846B0
:100C400000F0D0F9DFE7E3680193A3680093314631
:100C5000D4E90023284600F0C5F9D4E723690293BC
:100C6000E3680193A36800933146D4E90023284642
:100C700000F0B8F9C7E76369039323690293E36857
:100C80000193A36800933146D4E90023284600F07D
:100C9000A9F9B8E708292DE9F74F80460E4617460F
:100CA0001C463CD8002593F80C901D73194610463D
:100CB000FFF7FCFEDFF888A0DFF888B0AE4231D93C
:100CC00018F805205946204600F08CF90135082D0A
:100CD000F4D11949194DDFF870A0204600F082F9CF
:100CE0004FF0000B5E4522D918F80B207E2A05D85C
:100CF0001046019202F02EF8019A00B92E225146B8
:100D0000204600F06FF90BF1010BBBF1080FE9D1A0
:100D1000012221463846FFF737FF84F80C9003B0D4
:100D2000BDE8F08F5146204600F05CF9CEE7294639
:100D3000204600F057F9E6E7C02F0000BE2F000064
:100D4000BC2F0000B62F0000C22F0000084A10B5CB
:100D50000123084C13600021A04204D801B11360A4
:100D6000054B186010BD40085B000121F4E700BF8F
:100D70000806002040420F0004060020074B1B5CC1
:100D80001F2B86BF064903F01F034FF0A04101222D
:100D900002FA03F3C1F80835704700BF483000007D
:100DA0000003005008B50020FFF7E8FF0120FFF71F
:100DB000E5FF0220FFF7E2FFBDE808400320FFF750
:100DC000DDBFC20710B504460CD54FF0A043032287
:100DD000C3F83427C3F83827C3F83C27C3F84027A3
:100DE000FFF7E0FFA3070AD54FF0A0430C22C3F89A
:100DF0002C27C3F83027C3F86027C3F8642710BD39
:100E00001FB50021039001AA44F20100CDE90111B0
:100E100000F004F805B05DF804FB000038B572B6C8
:100E2000FFF730FEFFF7B6FC0028FBD1104B114C4A
:100E3000114D1249E41AE408240444F00100FFF7BC
:100E4000FBFDD5F8F030DB0700D500BE0C4944F0BF
:100E50000200FFF7F1FDBFF34F8FEA68094B02F480
:100E6000E0621343EB60BFF34F8F00BFFDE700BFAD
:100E7000AC2E0000D42E000000ED00E04C3000004D
:100E8000583000000400FA0572B6024A13680133B4
:100E9000136070470C060020034A1368013B13607F
:100EA00003B962B6704700BF0C060020FFF7ECBF25
:100EB000FFF7F2BF10B5034653E8000F0A4643E8B8
:100EC000002494F0000FF7D110BD10B5034653E88D
:100ED000002F42EA010043E8000494F0000FF6D12D
:100EE00010BD10B5034653E8000F00EA010243E8C5
:100EF000002494F0000FF6D110BD10B5034653E85E
:100F0000002F02EB010043E8000494F0000FF6D13B
:100F100010BD10B5034653E8002FA2EB010043E8D3
:100F2000000494F0000FF6D110BD0121FFF7CDBFF2
:100F30000021FFF7D6BF10B590B1D0E901230168B9
:100F40009B1ADBB20A60013BDBB2FF2B026802D1C5
:100F50000020107110BD11684C1C14600B70F2E77A
:100F60000E20F7E738B504460020FFF79FFF226800
:100F700063681168994213D9481E106011F8013C4A
:100F8000E568218A01FB0355A36811791B1ADBB2BE
:100F9000994200D213710020FFF78AFF284638BD1E
:100FA0000025F8E738B5054600200C46FFF77EFF20
:100FB0002A681368591C1160E968641A298AB4FB0D
:100FC000F1F41C70BDE838400020FFF771BF826863
:100FD00010B504462AB143690168006998470023A7
:100FE000A36010BD0EB403B5039921B104AB01AAEF
:100FF000019300F077F802B05DF804EB03B070479E
:101000000A2938B504460D4602D10D21FFF7F8FF35
:10101000A3682268591CA160D554D4E901329A42D0
:1010200004D32046BDE83840FFF7D1BF38BD0000EB
:101030002DE9F84F9846DDE90A43154682460F46EA
:101040000A464FF00109AA420FD2C14538BFC14636
:1010500013F0010B01D16CB900240126B8F1010F86
:101060001BD908F1FF386E43F8E709F10109B2FB1B
:10107000F5F2E8E79B070ED5B8F1000F0CBF30265C
:101080002026A145E9D2013C31465046FFF7B8FF82
:10109000002CF6D1E0E72026F3E7B7FBF6F39D42FC
:1010A000E1D9DFF83C80B7FBF6F3504618F803109F
:1010B00006FB1377FFF7A4FF3346AB42B6FBF5F60A
:1010C000F1D2BBF1000F02D00CB1A14501D3BDE8B4
:1010D000F88F20215046013CFFF792FFF4E700BF54
:1010E000653000002DE9F74F054617468846002970
:1010F00000F03E8118F8011B49B92B7B002B00F052
:101100003781284603B0BDE8F04FFFF760BF2529BF
:1011100040F0B780002698F800302D2B424608F1A9
:10112000010823D0302B24D02B2B25D000242A2BB0
:1011300002F1010123D13B681A1D1B683A601C446F
:101140000A4613782E2B26D101324FF0000A1046A2
:1011500010F8011BA1F1300CBCF1090F1DD80A23B6
:1011600003FB0A13A3F1300A0246F0E746F001063A
:10117000D1E746F00206CEE746F00406CBE711F8C9
:10118000013CA3F130000928DBD80A2202FB043419
:10119000303C0A46CBE74FF0000A12F8011B01F081
:1011A000FB0068289046F8D0782909D86F290CD818
:1011B000632962D022D8252963D0582900F088807D
:1011C00098F80030002B95D197E770390829F7D8A7
:1011D00001A353F821F000BF4B130000C111000020
:1011E000C1110000E1120000C1110000BF12000097
:1011F000C1110000C1110000D1120000642901D00A
:101200006929DDD13A68D2F80090111D89EAE972A6
:101210003960A2EBE9724FF0010B092A35DCD345A6
:1012200038BFD3462CB1B9F1000F01DB720700D5EE
:10123000013CB30702D5BAF1000F03D0F00701D487
:101240004CBB0024B9F1000F2DDAC9F100092D21A2
:101250002846FFF7D5FE06F00302022A04D1BAF1B0
:10126000000F01D11CBB0024CDE9004653460A22E1
:1012700049462846FFF7DCFEA2E73B681A1D1978AD
:101280003A602846FFF7BCFE9AE70A230BF1010BF0
:10129000B2FBF3F2C1E7A345D4D220212846013C9A
:1012A000FFF7AEFECCE77107D5D52B21D0E7A345DC
:1012B000DAD230212846013CFFF7A2FED2E7396896
:1012C000CDE900460A1D3A6053460A220968D0E774
:1012D00039680A1D3A60CDE9004653461022F5E709
:1012E0003B681A1D3A6016F00106D3F8009024D12D
:1012F000B9F1000F03D0484601F0A7FD0646B442FD
:101300001DD809F1FF3919F8011F00293FF458AF22
:101310002846FFF775FEF6E728460136FFF770FE10
:1013200019F806100029F7D1A642BFF449AF2021D1
:101330002846013CFFF764FEF6E70026F0E720218F
:101340002846013CFFF75CFED9E73B681A1D3A606E
:10135000302128461C68FFF753FE78212846FFF706
:101360004FFE00220823CDE900322146102280E7FB
:1013700003B0BDE8F08F00BF2DE9F84FB0F806A02C
:101380004579D2F800B09DF828900AFB05F5043D98
:1013900088460BEB0301A94203F1040488BFA5EBC7
:1013A000030BB4FBFAF607460AFB1644C2F800B07A
:1013B0004EB9AAEB04055D4528BF5D46BBF1000FA1
:1013C00004D1BDE8F88F3F68013EF1E7043408EB33
:1013D00006003C442A46B9F1000F0DD02146ABEB84
:1013E000050B01F009FDDA452E443F6855464FF0E4
:1013F000000428BF5D46E1E701462046EFE7FFF71E
:101400009ABDF8B546790146721E054600239342FF
:101410002D6803D30024A64202D8F8BD0133F6E7B5
:101420000F682846FFF7BEFD01343946F3E72DE982
:10143000F843068ACD1C0746FFF794FD043E354469
:101440000446B5FBF6F5F0B14FF48073EDB283803E
:10145000C680013D076081464FF00008A84512D2C2
:101460003846FFF77FFD064648B163790133637163
:1014700008F10108C9F8000007608146EEE7204640
:10148000FFF7BFFF34462046BDE8F8830121043052
:10149000FFF733BD10B5012104460430FFF739FDD5
:1014A000C0B220B92046BDE81040FFF7AABF10BD6A
:1014B0001FB503920022009203AAFFF75DFF05B05B
:1014C0005DF804FB1FB503920122009203AAFFF707
:1014D00053FF05B05DF804FB836800225A60C3E93E
:1014E00004229A60DA601A60704700001FB5037822
:1014F0008DF800304368019383688DF80830C36825
:10150000054A0393054B684653F8213052F82110E1
:10151000984705B05DF804FB10060020180600206F
:101520001FB503788DF800304368019383688DF808
:101530000830C368054A0393054B684653F82130C9
:1015400052F82110984705B05DF804FB1006002002
:1015500018060020F0B5194B90F800C0DFF86CE0D9
:1015600043F82C20164B16460A6943F82C204B7F73
:101570000EF80C300C4607460FCC89B06D460FC5EF
:1015800094E80F0085E80F003B78CDF810C01EF8F6
:1015900003304BB1002E0B4A694608BF3246381D56
:1015A00000F0C4FD09B0F0BD002E074A694608BF2F
:1015B000324607F10C0000F07DFBF3E7180600202F
:1015C00010060020ED140000211500002006002068
:1015D000014B1B68184700BF2406002038B50B4B91
:1015E00098420C4601D0002038BD0020FFF75EFC79
:1015F000074B1D7915B901221C601A710020FFF7F5
:1016000057FC002DEFD01120EEE700BF0020004076
:1016100024060020034B984201BF034B00221A60AE
:101620001A71704700200040240600201F2886BF42
:1016300000F01F00044B4FF0A04300F5E0700222C1
:1016400043F82020704700BF000300500F4B5A7929
:1016500010B502F0FF04B2B90D491A68C1F8004193
:101660001AB101245C71C1F8044300F1804000F517
:1016700024300123036022B9054AD2F80031002B3F
:10168000FBD0002000E0112010BD00BF2C06002080
:10169000009002400E4B0238D3F83C26D3F838367F
:1016A000072813D8DFE800F0110F0D0B0A08060415
:1016B000100EC871100C8871100A48710A711A0E48
:1016C000CA701A0C8A701A0A4A700B70704700BFF1
:1016D00000900240023807281FD8DFE800F02927D1
:1016E000251123211F04CB791B068A7943EA024383
:1016F0004A7943EA02230A7913430E4AC2F83C3678
:10170000CB781B068A7843EA02434A7843EA0223ED
:101710000A781343074AC2F8383670470023E4E7D3
:101720000023E5E70023E6E70023EBE70023ECE7EF
:101730000023EDE70090024070B5084D084E642488
:1017400045F00105D6F8003133B94FF42070A847B1
:10175000013CF7D10D2070BD0020FCE78030000077
:10176000009002402DE9F0476D4E3379002B40F098
:10177000D18090F80480B8F1FF0F00F0CE8090F88F
:1017800005E0BEF1FF0F00F0C88090F806C0BCF184
:10179000FF0F00F0C280C779FF2F00F0BE80B8F1C4
:1017A0001F0F8BBF08F01F0343465E4C4FF0A04451
:1017B00003F5E073BEF11F0F40F2023544F82350E9
:1017C0008BBF0EF01F037346564C4FF0A04403F539
:1017D000E073BCF11F0F40F2023544F823508BBF79
:1017E0000CF01F0363464F4C4FF0A04403F5E07329
:1017F0001F2F40F2023544F823508BBF07F01F0320
:101800003B46484C4FF0A04403F5E07340F20235EC
:1018100044F82350047AFF2C0DD01F2C93BF23468D
:1018200004F01F033F4D4FF0A04503F5E07340F275
:10183000023945F82390437AFF2B0ED01F2B93BF1C
:101840001D4603F01F05DFF8DC904FF0A04905F5B9
:10185000E07540F2023A49F825A0FF2C324D08BF4E
:101860004FF0FF34FF2B08BF4FF0FF33C5F824853E
:10187000C5F828E5C5F830C5C5F83475C5F838454C
:10188000C5F83C350368C5F84035037BC77A847AD0
:101890009B0143EAC7032343447B002C14BF8024ED
:1018A00000242343C5F84435D5F80036847B90F8EE
:1018B00010C0477C23F07F4323F0FF032343C47B06
:1018C00043EA4C63002C14BF4FF08074002443EAB9
:1018D00007732343C5F80036002373710123316079
:1018E000B260C5F8083341B1837C104A5B01DBB2BA
:1018F00082F829334FF4007353600B4B012200210F
:101900003271C3F80025BDE8F047C3F800111A6032
:10191000FFF712BF0820BDE8F0870720FBE700BFF4
:101920002C060020000300500090024000E100E07F
:10193000F8B51546194A5279044602F0FF004ABB31
:10194000174EC6F8000111B16078FFF7C3FE0123FE
:10195000C6F80833A37862781B0343EA022322788F
:101960001343E27843EA4233227943EA82336279CD
:1019700043EAC233C6F83436FFF7DEFE0D2808D03E
:101980000027C6F800713DB160782946FFF782FE56
:101990003846F8BD1120FCE72846FAE72C0600205F
:1019A00000900240F8B5224BD3F8342602F44032BE
:1019B000B2F5803F04BF1F4AC3F834261E4A4FF4D5
:1019C0000071C2F88410BFF34F8FBFF36F8F0122F5
:1019D000C3F808231A615A650022C3F80025C3F82A
:1019E0000021D3F82405D3F82875D3F83065D3F84F
:1019F0003455D3F83845D3F83C15C0B2FFF716FE7E
:101A0000F8B2FFF713FEF0B2FFF710FEE8B2FFF7EF
:101A10000DFEE0B2FF28C9B201D0FFF707FEFF2993
:101A200002D00846FFF702FE044B00221A71F8BDEF
:101A3000009002400001030000E100E02C060020BD
:101A400000F06043B3F1005F0BD1830709D1064B6F
:101A5000C3F81025C3F81405C3F818150820FFF7BC
:101A6000F5BD1020704700BF0090024000F06043B9
:101A7000B3F1005F0BD1830709D1064BC3F80425EE
:101A8000C3F80805C3F80C150420FFF7DFBD1020CC
:101A9000704700BF009002408B0707D1044BC3F88A
:101AA0001C15C3F820050C20FFF7D0BD102070478F
:101AB00000900240064AD2F800313BB1054B0020AD
:101AC00058719968C2F800011A681047704700BF42
:101AD000009002402C0600200023435082B043585F
:101AE0000193019B02B070470A4610B54FF48E7106
:101AF000FFF7F2FF136A9168C95C136A013313623E
:101B0000C0F81C1510BD8B690A4610B54FF48471DE
:101B100023B9FFF7E1FFD0F8183510BDFFF7DCFF60
:101B2000536AD168D0F81805C854536A0133536218
:101B3000F3E700001FB501238DF80030044BCDE919
:101B40000110D3E900126846904705B05DF804FB28
:101B50003806002030B54D4DD5F804339A0585B0D0
:101B600051D5D5F82431002B4DD04FF49271284631
:101B7000FFF7B2FF4FF40173C5F80833444B93F8F5
:101B800029200AB901226A60404902228DF800200A
:101B9000D1F88024C1F8802403929A690292DA680D
:101BA00001920022C3E906226846D3E90012904759
:101BB0003648D0F81C315BB1354A5169136A9942F5
:101BC0004DD992F82830002B49D11146FFF78CFFF0
:101BD0002E48D0F84431002B56D04FF4A271FFF7B5
:101BE0007BFF2B4B93F829200AB1012202609A69EE
:101BF000002A49D0586AD96800229A6105B0BDE828
:101C00003040FFF797BFD5F804335B07D0D5D5F840
:101C10000831002BCCD01E4C1C482146FFF773FF27
:101C2000636AA2699A42C3D1E369E1684BB1A361D7
:101C30002369E3600023606AE3616362FFF77AFF70
:101C4000B6E794F829300BB901236B600F4B4FF4C2
:101C50000172C3F808230023606AA361EEE70B4812
:101C60004FF48E71FFF738FF5369002BB0D05169E4
:101C70000291002391688DF800300191536168460C
:101C8000D2E900139847A3E705B030BD002000401B
:101C9000380600201F2886BF00F01F00044B4FF0BD
:101CA000A04300F5E070022243F82020704700BFF7
:101CB000000300502DE9F843604D90F804802C2378
:101CC00003FB0853064693F82A300C469146002B36
:101CD00040F0AF805A490068FFF780FC07460028B3
:101CE00040F0A9802268531C10D01F2A87BF554995
:101CF00002F01F0313464FF0A0410120984003F566
:101D0000E073C1F80805032041F823006168481C0E
:101D10000DD01F298BBF01F01F030B4649484FF020
:101D2000A04003F5E0734FF0000C40F823C030688A
:101D3000A369C0F8243594F814C0637DBCF1010F89
:101D40004CEA0303C0F86C35C0F81415C0F80C2534
:101D50002BD1A368591C0DD01F2B8BBF03F01F0282
:101D60001A4638494FF0A04102F5E0724FF0000CDE
:101D700041F822C0E1684A1C13D01F2987BF314AAD
:101D800001F01F0C8C464FF0A0424FF0010E0EFAEE
:101D90000CFE0CF5E07CC2F808E54FF0030E42F8AB
:101DA0002CE0C0F80815C0F810352C2202FB08F210
:101DB000AB18C3F804902369AB50B9F1000F20D0E1
:101DC0004FF48E71247FFFF787FE4FF4A2713068C5
:101DD000FFF782FE32681C4BC2F80433130B42F348
:101DE00007326101002AC9B21EDB1848841884F842
:101DF00000130121520903F01F0301FA03F340F815
:101E0000223033680422C3F800252C2303FB085337
:101E10000022C3E9062283F829205A61012283F8AF
:101E20002A203846BDE8F883094A03F00F03D1544D
:101E3000E7E70827F5E71127F3E700BF380600209A
:101E4000551B0000000300508000020000E100E08C
:101E500014ED00E02DE9F04103680579284C0022DB
:101E6000C3F800252C2202FB054201465268A2B1AC
:101E7000244AC3F808231A0B43F30733002B0CDB67
:101E800002F01F005B090122824020331E4840F807
:101E90002320BFF34F8FBFF36F8F0B68D3F80C0570
:101EA000D3F81485D3F80865D3F810754FF0FF32D6
:101EB0009042C3F81425C3F80C25C3F80825C3F8CD
:101EC000102501D0FFF7E6FEB8F1FF3F02D04046F3
:101ED000FFF7E0FE7A1C02D03846FFF7DBFE731CEA
:101EE00002D03046FFF7D6FE0868FFF793FB2C239D
:101EF00003FB0544002384F82A306360BDE8F081C9
:101F0000380600208402020000E100E00279044B60
:101F10002C2101FB02335869003818BF012070479B
:101F2000380600202DE9F84F064690F804808946CF
:101F30009246FFF7EBFF044600283CD1204F2C25AA
:101F400008FB057B4FF48E71CBF814A0CBF80890FA
:101F5000CBF820008BF828003068FFF7BDFD306813
:101F6000012383605946FFF7BFFDDBF804305D466F
:101F70001BBB3068DBF814402B6A9C4211D83368D5
:101F8000D3F81C21002AFBD00122DA6000202C2388
:101F900003FB087700237B61BDE8F88F95F82830B4
:101FA0003BB9D0F81C31002BF8D05946FFF79CFD07
:101FB000E2E70F20EBE71120EEE72046ECE700BF59
:101FC000380600200023435082B043580193019B00
:101FD00002B070471FB501238DF80030044BCDE9E6
:101FE0000110D3E900126846904705B05DF804FB84
:101FF000640600207FB5434AD2F82461002E60D0E9
:1020000010464FF49271FFF7DDFF02238DF8003088
:10201000D2F88034C2F880340393D2F83C3502936E
:10202000394BDA6801920022C3E906226846D3E9F7
:10203000001290473348D0F8443173B14FF4A27185
:10204000FFF7C0FF304B9A693AB10022C3E906227C
:10205000D968D0F83C05FFF7BDFF2A48D0F82031F9
:10206000ABB14FF49071FFF7ADFF0123C360264B76
:102070005A6962B1D0F84C150291002299688DF826
:10208000002001915A616846D3E9001290471D482B
:10209000D0F858319BB14FF4AC71FFF793FF1A4B56
:1020A0005A6962B1D0F84C150291002299688DF8F6
:1020B000002001915A616846D3E90012904704B0AC
:1020C00070BDD2F81031002BB4D04FF48871104697
:1020D000FFF778FF0C4BD2F83C0599698842A9D1EB
:1020E000DC69D96864B1D2F8005225F02005C2F845
:1020F00000521A699C61DA60DE61FFF76BFF99E7B5
:102100009C61FAE700200040640600201F2886BF7B
:1021100000F01F00044B4FF0A04300F5E0700222D6
:1021200043F82020704700BF000300502DE9F8431A
:10213000664E90F80480242303FB0863044693F85A
:1021400020300D469146002B40F0BC80604900686D
:10215000FFF744FA0746002840F0B68029684B1C78
:1021600010D01F2987BF5B4A01F01F030B464FF0B9
:10217000A0420120984003F5E073C2F8080503204F
:1021800042F823006A68501C0DD01F2A8BBF02F052
:102190001F0313464F484FF0A04003F5E0734FF084
:1021A000000C40F823C02068AB69C0F8243595F8CE
:1021B00014C06B7DBCF1010F4CEA0303C0F86C3511
:1021C000C0F80C15C0F814252BD1AB68591C0DD0E4
:1021D0001F2B8BBF03F01F021A463E494FF0A04150
:1021E00002F5E0724FF0000C41F822C0E9684A1C89
:1021F00013D01F2987BF374A01F01F0C8C464FF0C0
:10220000A0424FF0010E0EFA0CFE0CF5E07CC2F875
:1022100008E54FF0030E42F82CE0C0F80815C0F8AE
:102220001035242202FB08F2B318C3F804902B697E
:10223000B350B9F1000F2FD04FF488712A7FFFF708
:10224000C1FE20684FF49071FFF7BCFE20684FF488
:102250009271FFF7B7FE20684FF4A271FFF7B2FE4C
:102260004FF4AC712068FFF7ADFE23681A49C3F83C
:102270000413190B43F307335201002BD2B21CDBBA
:102280001648C51885F8002301225B0901F01F01DB
:1022900002FA01F140F8231023680822C3F8002550
:1022A000242303FB08660023C6E906337361012378
:1022B00086F820303846BDE8F883094B01F00F015D
:1022C0005A54E9E70827F5E71127F3E764060020E9
:1022D000F51F0000000300501003420000E100E081
:1022E00014ED00E02DE9F0413D4D0679046824230A
:1022F00003FB065302465B68ABB13A4BC4F80833A4
:1023000044F30733002B4FEA14310CDB01F01F00BC
:102310005B09012181402033334840F82310BFF38B
:102320004F8FBFF36F8FD4F8003223F02003C4F82F
:102330000032242303FB06539B6933B14FF4A2718F
:102340002046FFF73FFE012363604FF4AC71204647
:10235000FFF738FE0123E360242303FB0653D4F880
:1023600058110029FBD0996919B1D4F844110029FA
:10237000F5D00023C4F800351368D3F80C05D3F862
:102380001485D3F80815D3F810754FF0FF3290423A
:10239000C3F80C25C3F81425C3F80825C3F8102585
:1023A00001D0FFF7B3FEB8F1FF3F02D04046FFF780
:1023B000ADFE7A1C02D03846FFF7A8FE4B1C02D0B7
:1023C0000846FFF7A3FE2046FFF724F9242303FB6A
:1023D0000655002385F820306B60BDE8F08100BF12
:1023E000640600201003420000E100E00279044B83
:1023F000242101FB02335869003818BF01207047BF
:102400006406002001F06043B3F1005F2DE9F0475E
:102410000646884692463BD190F80490FFF7E6FFC7
:102420000446002836D11D4F3068242505FB097568
:102430004FF49071C5F814A0C5F80880FFF7C2FDED
:102440004FF4AC713068FFF7BDFD33686A69A96865
:10245000C3F84415C3F8482501229A606A68DAB9BE
:10246000D3F82021D3F858011AB90028F8D00F204A
:1024700007E00028FBD10122DA60D3F85821002AB6
:10248000FBD0242303FB097700237B61BDE8F087A1
:102490001020FBE71120F9E72046F7E7640600204B
:1024A0000023435082B043580193019B02B0704710
:1024B000F0B51A4C43791A4D44F8232003EB43033B
:1024C000EB5C43BB90F904408B7802795B01002CF4
:1024D000DBB21BDB134E371987F800330123640985
:1024E00002F01F0203FA02F246F8242003680A8869
:1024F000C3F8082543790879C97803EB4303EA1840
:10250000507091700122EA540020F0BD064C02F098
:102510000F02A354EAE70820F7E700BF8C0600206B
:102520008806002000E100E014ED00E003680122CD
:102530001A604379024A03EB43030221D1547047E6
:1025400088060020024610B500680C464FF48071E2
:10255000FFF7A6FF13680122C3F844230CB1C3F8A8
:10256000042310BD024610B500680C464FF482717A
:10257000FFF796FF13680222C3F844230CB1C3F897
:10258000042310BD2DE9F041224E234FDFF88C804B
:1025900000244FF48035D7F80433A6F580412B4250
:1025A00089B20CD0336853B1C7F848533846C7F8DE
:1025B0000853FFF775FFD8F80030E0B298470134B0
:1025C000042C4FEA450506F10406E4D11248D0F880
:1025D0000433DA070AD5D0F800313BB14FF48071EB
:1025E000FFF75EFF0D4B20461B6898470A48D0F85E
:1025F00004339B070CD5D0F804314BB14FF48271F2
:10260000FFF74EFF054BBDE8F0411B68052018475A
:10261000BDE8F08140410240004002408C060020AD
:1026200000F18040002382B0036003680193019BA6
:1026300002B07047044A137923B9012110609180D8
:10264000184670478520704790060020074B1A688F
:10265000D20704D4C02283F8002301221A604FF06D
:1026600080430122C3F81825704700BF00E100E055
:1026700008B54FF48270FFF7D3FF4FF0804302227A
:10268000C3F8042301229A6008BD00004FF0804186
:1026900010B5D1F8003163B14FF48070FFF7C0FF7F
:1026A0000D4B58790122C1F8082310B95A711B68E3
:1026B00098474FF08042D2F8043163B14FF48270F2
:1026C000FFF7AEFF0223C2F80833034BBDE810400A
:1026D0001B680120184710BD9006002038B5074C34
:1026E000051E04F1080318BF1C4623682BB11A68A5
:1026F00022605B6828469847F7E738BDA0060020AF
:1027000020B9054B01225A70FFF7E8BF012802D11A
:10271000014A9070F8E770479806002038B50C4CD5
:1027200023789BB90B486360A3602361E360FFF7E4
:1027300081FF0546FFF78AFF01232370064BD3F87C
:1027400000340BB10123A370284638BD8525F5E779
:1027500098060020012700000000014038B5134C06
:10276000A378054603F0FF0073B115B16B68012033
:1027700098470020FEF79AFBE3680133E3600020EE
:10278000BDE83840FEF794BBFEF790FB25B1226907
:1027900013463BB92A602561E368002BECD1FFF7B3
:1027A00067FFE9E79D42F7D01B68F2E79806002033
:1027B000014B01221A707047B00800202DE9F0414A
:1027C00088B0FFF7ABFF08B1FEF71AFB0020FFF758
:1027D000C5FF0120FEF7F5FA00F010F900F02EF920
:1027E0006848694F4FF40041FDF77AFF386008B13F
:1027F000FEF706FBFDF7B8FE644C654B6549664E77
:10280000E41AE408240444F003042046FEF714F913
:1028100062492046FEF710F961492046FEF70CF99F
:10282000022000F0E3FA002500F0D0FA0135B5F5FA
:10283000807F06F8010BF7D15A4E0FCE03AD0FC5BE
:1028400056F8103958492B60002203A8FEF78AFF7A
:10285000386008B1FEF7D4FA54492046FEF7ECF888
:10286000534B4FF4FA7543F001084FF47A40C047D8
:10287000013DFAD14F4B70699B8801902A46294649
:1028800001A8ADF80830FFF753F808B1FEF7B8FA21
:1028900000229923114601A88DF80430FFF748F86B
:1028A00008B1FEF7ADFA444D4449002620462E708B
:1028B000FEF7C2F831460120FFF7EEF8386008B1A4
:1028C000FEF79EFA2B78002BFCD03D4900262046CF
:1028D0002E70FEF7B1F83B492046FEF7ADF83A48B6
:1028E00032464FF48071FFF7C1F838602B78002B27
:1028F000FCD03649002620462E70FEF79DF834495C
:102900002046FEF799F8244832464FF48071FFF7CD
:1029100097F8386008B1FEF773FA2B78002BFCD0DB
:102920002C49002620462E70FEF786F825492046C1
:10293000FEF782F8244832464FF48071FFF796F88C
:1029400038602B78002BFCD0002320492B702046C8
:10295000FEF772F820492046FEF76EF81A490E4835
:102960004FF4807200F0FBF950B91C492046FEF785
:1029700063F8FFF717F81A492046FEF75DF8FEE7FF
:102980001849F3E75D2A0000AC060020D42E0000B1
:10299000AC2E0000A1300000B0070020D0300000B5
:1029A000FD30000064320000B12700003531000026
:1029B0008032000078320000B00800205D31000055
:1029C0008B31000096310000B0060020BF310000BE
:1029D000C9310000F5310000003200001E32000055
:1029E000403200002E320000052801BF024A136861
:1029F00001331360704700BFB408002007B50C4BCB
:102A00000C4A18689B880090ADF804300A480123EE
:102A10006946ADF80030FFF74BFD08B1FEF7F0F95D
:102A200005480121FFF78EFD03B05DF804FB00BFF0
:102A300086320000E92900008C32000008B5054B01
:102A4000054801219960FFF78DFDBDE80840024867
:102A5000FFF76CBD004002408C320000034A044B7B
:102A6000D3F80435106843EA00607047B4080020CA
:102A7000004002404FF08053D3F83001A0F108032A
:102A800058425841704700004FF08053D3F830212E
:102A9000082A06D1D3F83431052B02D8024AD05C7B
:102AA00070470020704700BF9A320000024AD2F8F7
:102AB0000034002BFBD0704700E0014010B5FFF759
:102AC000D9FF40B14FF080430022C3F80C21C3F876
:102AD0001021C3F83825FFF7CDFF002846D04FF06E
:102AE0008052654BD2F80414C3F82015D2F80814AC
:102AF000C3F82415D2F80C14C3F82815D2F8101412
:102B0000C3F82C15D2F81414C3F83015D2F81814E1
:102B1000C3F83415D2F81C14C3F84015D2F82014A9
:102B2000C3F84415D2F82414C3F84815D2F8281471
:102B3000C3F84C15D2F82C14C3F85015D2F8301441
:102B4000C3F85415D2F83414C3F86015D2F8381409
:102B5000C3F86415D2F83C14C3F86815D2F84014D1
:102B6000C3F86C15D2F84424C3F87025FFF78CFF26
:102B700018B1424B424AC3F88C26FFF785FF18B1C3
:102B8000404BFB22C3F81825FFF77EFF70B14FF0D2
:102B900080414FF08053D1F8E42ED3F8583222F020
:102BA0000F0203F00F031343C1F8E43EFFF76CFF7D
:102BB00020B1354B4FF40072C3F84026FFF75AFF9F
:102BC00048B14FF08043D3F80024D20744BF6FF0E0
:102BD0000102C3F800242D4AD2F8883043F4700370
:102BE000C2F88830BFF34F8FBFF36F8F4FF0805321
:102BF000D3F83021082A0ED1D3F83431052B02D86E
:102C0000234AD35C3BB14FF01023D3F808224FF096
:102C10008043C3F858254FF01023D3F80022002A30
:102C200003DBD3F80432002B22DA1A4901234FF0D8
:102C30001020C1F804351224FFF738FFC0F8004215
:102C4000FFF734FFC0F80442FFF730FF0023C1F85C
:102C50000435FFF72BFFBFF34F8F0C490E4BCA68AB
:102C600002F4E0621343CB60BFF34F8F00BFFDE778
:102C70000A4B0B4A1A6010BD00C0004000500040D3
:102C80004881030000F000400090024000ED00E0A9
:102C90009432000000E001400400FA051C0000200E
:102CA0000090D0037F2805D8034B185C034B5B5C76
:102CB0001840704700207047AC3200002C330000F1
:102CC000A0F16103192B98BF20387047A0F1410390
:102CD000192B98BF203070477F2805D8034B185C0C
:102CE000034B5B5C1840704700207047AC3200001B
:102CF0002C330000A0F16103192B98BF20387047D6
:102D0000A0F14103192B98BF203070477F299ABF4B
:102D1000017001206FF02E0070475AB10A787F2AA7
:102D20000AD800B10260002119605960501A18BF1A
:102D300001207047002070476FF02E0070470000A0
:102D400008B5034B5B689B681B68984708BD00BFCC
:102D50002000002008B50921FFF7F2FF08BD9AB353
:102D600030B594460F2A18D902460B4640EA0104B2
:102D700014F0030F02D00CF1FF3C11E0194610468D
:102D8000043204330C680568A54206D11046194682
:102D9000ACF1040CBCF1040FF0D8BCF1010C0FD065
:102DA0000A4603468444114618460133013204782A
:102DB00091F800E0744503D1184611466345F2D1FD
:102DC00000780B78C01A30BD00207047054B1A6898
:102DD000054943F2390001FB02001860C0F30E40C0
:102DE000704700BF340000206D4EC641014B186093
:102DF000704700BF34000020844640EA010313F00E
:102E0000030F18D18446202A0BD32DE9F007B1E82F
:102E1000F807A0E8F807A2F12002202AF7D2BDE8BF
:102E2000F007042A07D351F8043B40F8043BA2F111
:102E30000402042AF7D2002A05D011F8013B00F859
:102E4000013B013AF9D16046704700F1010110F0F1
:102E5000030F11D010F8012B002A23D010F0030F1C
:102E60000AD010F8012B002A1CD010F0030F03D059
:102E700010F8012B002A15D02DE970004FF0013217
:102E80004FF0803350F8044BA4EB020525EA04050B
:102E90001D4000D1F6E7A0F1040070BC10F8012B32
:0C2EA000002AFBD1A0EB010070470000ED
:102EAC0095300000000000007530000000000000AC
:102EBC00913000000000000086300000000000008F
:102ECC008B30000000000000562F000000000404AE
:082EDC009B3000000000000023
:102EE400282F000000000000342F000014000020F0
:102EF4007C000020440100204C01002084000020BC
:042F040018000000B1
:102F0800FFFFFFFFFFFFFFFFFFFFFFFFFFFFFFFFC9
:102F180000000000000000000000D60106010000CB
:102F2800950400003905000093040000756172746F
:102F38005F6C6F675F6261636B656E6400426163BB
:102F48006B656E647320666C757368656400617088
:102F5800700000006C0500207F000000EC050020D8
:102F68001B5B313B33316D0025734C6F67732064F5
:102F7800726F70706564202825642925730D0A0016
:102F88001B5B306D002573005B253032643A2530B9
:102F980032643A253032642E253033642C253033A0
:102FA800645D20003C25733E2025733A20002025CF
:102FB80030327800202020007C002563001B5B3124
:102FC8003B33306D001B5B313B33326D001B5B3193
:102FD8003B33336D001B5B313B33346D001B5B317E
:102FE8003B33356D001B5B313B33366D001B5B316A
:102FF8003B33376D007761726E696E6700696E6684
:103008006F00646562756700882F0000C52F000097
:10301800682F0000CD2F0000D52F0000DD2F000005
:10302800E52F0000ED2F0000F52F00000000000044
:1030380052300000FD2F0000053000000A3000006B
:103048000D0E0F10466174616C206572726F72000C
:1030580053797374656D207265736574003031320D
:103068003334353637383941424344454650525354
:1030780000000000000000000338FDD870475541EB
:1030880052540055415254450052544300434C4F4A
:10309800434B00636C6F636B0054696D6520426538
:1030A800747765656E2032206E7266202074696DB3
:1030B80065207374616D70204C6F672063616C6C60
:1030C800733A53544152540054696D6520426574F3
:1030D8007765656E2032206E72662074696D65733F
:1030E80074616D7020204C6F672063616C6C733A5B
:1030F80053544F50005153504920777269746520DA
:10310800616E642072656164206578616D706C65BC
:10311800207573696E672032346269742061646453
:1031280072657373696E67206D6F646500515350E3
:1031380049206578616D706C65207374617274657F
:10314800642077616974696E6720666F7220353014
:10315800306D732E0043616C6C696E672045726137
:1031680073652046756E6374696F6E20746F206591
:103178007261736520626C6F636B206F66203634F2
:103188004B4200457261736520446F6E6500436170
:103198006C6C696E6720526561642046756E637455
:1031A800696F6E20746F2072656164202032353635
:1031B800206279746573005265616420446F6E659E
:1031C8000043616C6C696E672057726974652046AC
:1031D800756E6374696F6E20746F20777269746599
:1031E800203235362062797465732D310057726943
:1031F800746520446F6E6500436F6D706172652061
:103208007265616420616E642077726974652062FA
:103218007566666572004461746120636F6E7369D8
:103228007374656E74004461746120696E636F6EB7
:1032380073697374656E74002D2D2D2D2D2D2D2D14
:103248002D2D2D2D2D2D2D2D2D2D2D2D2D2D2D2DA6
:103258002D2D2D2D2D2D2D2D0000000000000000FE
:10326800192F18151617000000000100000F06009E
:1032780066010101010100000338FDD87047000014
:103288000641000000400240240004000000000045
:10329800010101000000000043000000504F5349A5
:1032A80058000000202020202020202020682828E6
:1032B80028282020202020202020202020202020F6
:1032C800202020204810101010101010101010107E
:1032D800101010108484848484848484848410105E
:1032E800101010101081818181818101010101017B
:1032F80001010101010101010101010101010110A7
:10330800101010101082828282828202020202024F
:103318000202020202020202020202020202021077
:10332800101010200007032004170201085710404E
:1033380080000000A0320000A4330000B834000070
:1033480053756E004D6F6E005475650057656400C7
:1033580054687500467269005361740000000000EB
:103368004A616E00466562004D61720041707200EC
:103378004D6179004A756E004A756C0041756700A9
:10338800536570004F6374004E6F760044656300A8
:1033980000000000414D00504D000000DC340000EA
:1033A800D8340000D8340000D8340000D8340000E5
:1033B800D8340000D8340000D8340000D8340000D5
:1033C800D8340000FFFFFFFFFFFFFFFFFFFFFFFFF5
:1033D800FFFF000018340000483300005434000098
:1033E800683300009C330000FC330000AC3400005C
:1033F80008340000256D2F25642F25790000000072
:1034080025612025622025652025542025590000A6
:1034180053756E646179004D6F6E646179005475FF
:103428006573646179005765646E657364617900DA
:1034380054687572736461790046726964617900D1
:103448005361747572646179000000004A616E7599
:10345800617279004665627275617279004D6172B8
:10346800636800417072696C004D6179004A756E3D
:1034780065004A756C79004175677573740053650A
:103488007074656D626572004F63746F6265720077
:103498004E6F76656D62657200446563656D626541
:1034A8007200000025483A254D3A255300000000D7
:1034B800A52C0000C12C0000CD2C0000D92C000048
:1034C800F52C0000012D00000D2D00001B2D000023
:0834D800000000002E000000BE
:1034E000000000000020004000000000002000401C
:1034F0000000000000000000FF0000000090D0036A
:103500003C3300003C3300003C3300003C330000FF
:083510003C3300000100000043
:040000030000037581
:00000001FF
